:400000000080002011000000410200004102000008B5044B1A6803F53F5302331A6000F011F900BFFA46004010B5054C237833B9044B13B10448AFF300800123237010BDE7
:400040003881FF1F00000000201E0000084B10B51BB108480849AFF300800848036803B910BD074B002BFBD0BDE81040184700BF00000000201E00003C81FF1F0881FF1F65
:400080000000000008B50F4A138801339BB2138013889BB2092B02D8128892B200E00022084B1A801A8892B25B889BB29A4207D1054B187800F0D6FA024B00221A715A7189
:4000C00008BD00BF5481FF1F6081FF1F38B500F027FC01200146554A120C4FF4804301F051FD534B1870002405E000F029FB514B18550134E4B2092CF7D9002308E05C1C81
:400100004C4AD05C2021125D052300F033FBE3B2082BF4D9474B587A20211A78052300F029FB00240BE0414901EB4411414B185D89B245F6813200F031FB0134E4B2092CDF
:40014000F1D93B4B18783B4B197800F0C9FA3A4800F084FB62B60020012100F0F7FC00F02DFD0028FBD0002400F02EFD78B100F025FD60B1012000F037FD40B12F4B00243B
:400180005C801C801C715C71022000F0D3FD022000F030FD012836D14CBB284B5B889BB20220224901EB4311202200F06BFD022000F020FD0128FAD000F04AFB1F4A538870
:4001C00001339BB2538053889BB2092B02D853889BB200E00023194D6B8000F033FB6B790133DBB26B71022000F0A4FD03E0022000F0A0FD0024114B1A8892B25B889BB27F
:400200009A4200D101240D4B1B7913F0FF0FABD10A4B5B79DBB2052BA6D1054B1878012100F004FA0122054B1A719DE76481FF1F6081FF1FA482FF1F850000005481FF1FE6
:40024000FEE700BF08B5104E104D16E029686B68AC68002204E051F8040B43F8040B0432A242F8D1E868002203E0002143F8041B04328242F9D11035013E002EE6D101F07B
:4002800095FDFFF723FFFEE701000000E820000008B5134A134B1A60134A136843F40073136000230AE0032B03D8104A52F8231000E00F490F4A42F8231001332F2BF2D97B
:4002C0000D4B1A780D4B1A700A4A0D4B1A6000F0D5F800F091F900220A4B1A6008BD00BF0004FA050CED00E014ED00E000000000410200000080FF1FBC7600400481FF1FAD
:4003000008ED00E00081FF1FFEE700BFF0B40022174611E050F82760F3B226F0FF0608E001EB420511F812406D78A5550132013BDBB2002BF4D10137212FEBD9F0BC704712
:400340000A4B1B78DBB203F00701094A11701B09013213708022074B1A70012203F66F131A704422A3F215231A707047CF0100496E5800401C51004008B50A46002101F05A
:4003800046FD08BD38B500242D4B1C80582202331A70012202331A8018232A4A1370172229490A8002310B7002310A80274A137040F21F2102321180023213700622244B9A
:4003C0001A705222A3F580731A70224B1B78DBB2214A13704FF4E162204B1A8041F25122023B1A8019250CE01D4B1B7803F0010343EA440404F003044FF4F07000F0ECF864
:40040000013D0DB1032CEFD115B90320FFF77CFF144A4FF48073138007231370002312490B7048200231087013700532137002220E4B1A700E4A137843F01F03137038BD9B
:400440008040004086400040884000408E400040004300400F010049A14600402242004025420040044000400640004001400040A243004008B501F0BFFC08BD38B572B61F
:400480003F4A137843F00403137000240CE03D4963001A1952000A4423445B00C8589188FFF76AFF0134E4B2092CF0D9002410E03449A3001A1952000A4452F83C0F234479
:4004C0005B000B445168B3F84420FFF7D3FF0134E4B2022CECD94FF090402B49FFF716FF2A480421FFF748FF29480421FFF744FF284A137843F0020313701032137843F01B
:4005000002031370244C237843F040032370A2F58632513A137843F0100313701F4820490A22FFF7A7FF1F481F490822FFF7A2FF1E481F490822FFF79DFF1E481E49082248
:40054000FFF798FF1D481E490822FFF793FF1D481D490822FFF78EFF1C4A137843F0080313701B4D01232B70FFF70CFF81232B70FFF7E6FE174821460E22FFF77BFF38BDAA
:40058000E8460040241E000088000048007600400876004003500140A0430040F0510040FC07004812510040080800482251004010080048325100401808004842510040B8
:4005C0002008004852510040280800482243004000480040B04300400230800803D000BF01380046FCD17047EFF3108072B6704780F31088704700BF0B4A7F231370802194
:40060000517007E0DA0002F1804202F5F042013BDBB21370002BF5D1DB0003F1804303F5F04300221A7070470C81FF1F172815D831B103010A495A5C42F020025A5405E050
:40064000030107495A5C02F0DF025A540001044A835C43F00103835400207047012070471070004017280BD80001064BC25C02F0FE02C254C25C02F0DF02C25400207047CC
:40068000012070471070004017280BD80001064A835C03F0F10301F0070143EA4101815400207047012070471070004041F6FF73994201D14FF4005141F6FF739A4201D17C
:4006C0004FF40052172808D8C00000F1804000F5EC408180C280002070470120704700BF172805D8034B03EB0010417200207047012070471070004017281BD810B4C000C3
:4007000000F1804404F5EC44D201D2B201F07F01114321709DF804201201D2B203F00F03134363709DF8083003F00F03A3700020E07001E0012070475DF8044B704700BF88
:4007400010B5FFF751FF0A4B5B78182B0BD9084A1478013B5370E30003F1804303F5F0431B78137000E0FF24FFF742FF204610BD0C81FF1F10F0800F0CD111F4704F0BD143
:40078000C00000F1804000F5F04001808270C37000207047012070470120704710F0800F08D1C00000F1804000F5F0408180C280002070470120704701BE704708B5034B05
:4007C0001B7A03FB00F0FFF707FF08BD1481FF1F70B504460E46074B1D681F2802D90020FFF7EAFF04F01F04103455F8240045F8246070BD08ED00E038B504460D460729FE
:4008000002D90020FFF7D8FF1F2C02D90020FFF7D3FF04F01F0000F1604000F564406D01EDB2057038BD00BF014B1B681864704708ED00E04001C0B2014B1870704700BF9B
:4008400000E400E00122014B1A60704700E100E00122014B1A60704780E100E010B50446FFF7F6FF2046FFF7DFFF0720FFF7E2FFFFF7E8FF10BD00BF054A137843F00203C5
:4008800013701032137843F002031370704700BFA8430040054B1A7802F0FD021A701A7800F0020010431870704700BF24580040014B1870704700BF815B0040064B1B7854
:4008C000C3F3810303F19243063393F83031DBB2024A1370704700BF245800400946004008B5064B1A7802F0F3021A701A7800F00C0010431870FFF7E1FF08BD24580040E2
:4009000010B50024054B1C7001331C702046FFF7E7FF2046FFF7BEFF10BD00BF2458004008B5074B1B7823B9FFF7EAFF0122044B1A70FFF7A1FF6420FFF7BAFF08BD00BFE9
:400940005A81FF1FF8B5FFF74FFE0546404A137843F0010313701032137843F00103137001273C4B1F700226943B1E7002F5E2521B32137803F07F0313700020FFF71EFFFC
:40098000354C237803F0F9032370344A137803F0DF03137023783B4323703846FFF70EFF2820FFF70BFF2E4B1A7802F07F021A701A7802F0BF021A702378334323703046D2
:4009C000FFF7FCFE237843F0040323700023254A13700132137004E0FF21234AD15401339BB2082BF8D92846FFF702FE17200721FFF702FF17201D49FFF7EAFE1820072124
:400A0000FFF7FAFE18201A49FFF7E2FE15200721FFF7F2FE15201749FFF7DAFE01200721FFF7EAFE01201449FFF7D2FE16200021FFF7E2FE16201149FFF7CAFE0C20072177
:400A4000FFF7DAFE0C200E49FFF7C2FEF8BD00BFA54300409D6000409443004012600040F851004084600040BC82FF1F091200005510000005120000C91100001112000030
:400A8000B512000008B5234B18700023224A1370224A1370224A1370224A1370224A1370224A1370224A1370224B4FF400021A604FF080721A604FF400121A6002221A60CC
:400AC0001D4802704FF480021A6020221B4B1A7011B1012906D00BE0194A137803F0FE0313700AE0164A137843F00103137004E0134A137843F0010313700322114B1A707C
:400B00008022203B1A700120FFF766FD04220E4B1A7008BDDC82FF1FE282FF1FE082FF1FE182FF1FDD82FF1FC882FF1FDF82FF1F5883FF1F00E100E09E6000409C6000404F
:400B400009600040286000401260004038B505460C46064B1B7823B9FFF7F4FE0122034B1A7028462146FFF78DFF38BD5B81FF1F00230A4A13700A4A13700A4A13700A4AE3
:400B800013700A4A13700A4A13700A4A13700322094B1A708022203B1A707047E282FF1FE082FF1FE182FF1FDD82FF1FC882FF1FDF82FF1F5883FF1F28600040014B187868
:400BC000704700BFE182FF1F064B1B7813F0FF0F05D0044B1878C0B200221A7070470020704700BFE082FF1F014B185C704700BFCC82FF1F00EB40008000024B18444078BC
:400C0000704700BFEC82FF1F431EDBB2072B0BD8064B00011A18185C00F00F00537843EA0020023880B2704700207047FC5F004010B5044600EB400080000F4B184403791F
:400C400013F0800F03D00A0C4FF4804302E00B0C4FF48042022C05D10020014600F074FF064B1855631EDBB2072B03D8FFF768FD034B185510BD00BFEC82FF1FB082FF1FD0
:400C8000BC82FF1F2DE9F843002944D0044615460F46002841D0082841D8FFF7B5FFA84203D22046FFF7B0FF05461F4B1B5DFF2B03D120463946FFF7BBFFDFF8748018F8BF
:400CC0000400FFF7CFFCDFF8609019F804002946FE221223FFF74EFD21010831134E314489B219F80400BAB2FFF758FD18F8040019F80410FFF7F4FC18F804000121FFF7CB
:400D000095FC2401335D43F002033355335D03F0FD03335504E0002502E0002500E000252846BDE8F88300BFBC82FF1F70600040B082FF1F431EDBB2072B0BD843000344F7
:400D40009B00054A134400225A705A79D2B20001024B1A54704700BFEC82FF1FFE5F00401C4B19781C4A13880B449BB2138000230EE01A4A51680978C9B21948C154516813
:400D8000013151600133DBB21188013989B21180124A128892B20AB1072BEAD90D4A1278D2B2082A00D05BB10E490A7882F080020A700F210C4A117002210C4A117004E067
:400DC000022209490A7009490A70094A1370014A137070475883FF1F5E83FF1FD082FF1F00600040DE82FF1FC982FF1FE282FF1F5983FF1F0222074B1A708022064B1A70F4
:400E00000F22064B1A700023054A1370054A137001207047E282FF1FDE82FF1FC982FF1F5883FF1F5983FF1F08B5FFF799FF08BD10B4184B197801F00F010239C9B2164ACC
:400E400013880B449BB21380002010E0134B5C68134A125CD2B222705A6801325A600130C0B20139C9B21A88013A92B21A800B4B1B889BB20BB10029E8D10A4B19700A4ABD
:400E8000137883F0800313700B22084B1A705DF8044B7047296000405E83FF1FD082FF1F006000405983FF1FDE82FF1FC982FF1F0623064A1370064A13708022054B1A70C5
:400EC0000022054B1A700120704700BFE282FF1FC982FF1FDE82FF1F5983FF1F064B9B6843B1054B9A6810709A6804490988518000229A60704700BFD082FF1F5E83FF1F30
:400F000008B5134B1A78D2B21A701B78DBB213F0800F02D00F4A137008BD0220FFF7DEFF0D4B1B7803F06003202B05D0402B06D043B900F063FC06E000F042FE03E000F006
:400F4000EFFD00E0002010B90322024B1A7008BD28600040C982FF1F0060004008B5084B1978084A13880B449BB213800022064B1A700120FFF7B2FF0322044B1A7008BDE5
:400F80005883FF1F5E83FF1FE282FF1FC982FF1F08B50B4B1B78DBB2042B06D0062B07D0022B0BD1FFF7DAFF08BDFFF741FF08BD0320FFF793FF0322024B1A7008BD00BF4B
:400FC000E282FF1FC982FF1F08B50022044B1A700120FFF783FF0322024B1A7008BD00BFE282FF1FC982FF1F08B50B4B1B7813F0FF0F07D0084A137843F0800307490B705E
:40100000002313700022064B1A700120FFF766FF0322044B1A7008BDC882FF1F08600040E282FF1FC982FF1F08B5094B1B78DBB2042B06D0062B07D0022B07D1FFF7F4FEA8
:4010400008BDFFF7C1FF08BDFFF7CEFF08BD00BFE282FF1F08B5284B1B78DBB213F0100F48D013F0800F0CD003F00F03012B16D1FFF746FF214B1B7813F0800F11D1012385
:4010800012E013F0400F03D0FFF7CEFF01230BE013F0200F07D0FFF77BFF012304E0002302E0002300E0002323B3134B1B7813F0800F1FD1124B1B78124A12781343124ACA
:4010C00013701278D2B29A4214D10C4B1B78DBB2094A127812F0800F07D1084B1B78DBB2054A1370137803F00F03044A1278D2B29342EAD108BD00BF28600040C982FF1F6B
:40110000DE82FF1F5983FF1F296000400022064B1A80064B9B682BB1044A916800230B7092685380704700BF5E83FF1FD082FF1F08B50F4B1B889BB213B9FFF75BFE15E083
:4011400002220C4B1A7000220B4B1A70FFF7DEFF0A4AD179937943EA0123054A128892B29A4201D9024A1380FFF7FAFD012008BDD082FF1FE282FF1FDE82FF1F00600040F5
:4011800008B504220B4B1A7080220B4B1A70FFF7BDFF0A4AD179937943EA0123084A128892B29A4201D9064A13800B22054B1A70012008BDE282FF1FDE82FF1F00600040E7
:4011C000D082FF1FC982FF1F0B4A137803F0FD0313700A4B93F82230094B1B7E03F00303012B04D0064AD37E83F08003D3760122034B5A76704700BF0B600040FC5F0040CB
:40120000EC82FF1F704700BF08B5FFF7B1FC08BD70B4234B1C78E4B201233CE014F0010F36D01A4619011F48084481784078014011F0010F17D003EB430080001A4D2844D6
:40124000007910F0800F0ED0164D1E01A85D00F0FE00A85503EB43008000134D28444579EDB21248855511F0020F0ED002EB420080000D4D2844007910F0800F05D102EBD8
:40128000420080002844002545701201084881540133DBB26408002CC0D170BC704700BF9F60004070600040EC82FF1FFE5F00407260004008B500F03FFC08BD30B4012224
:4012C00040E0114623481301C4180C25C5541F23637002EB42039B001F4803445B7913F0FF0F12D002EB42039B0003441B7913F0800F04D01001194B03449D700AE01001A9
:40130000164B03440820987004E01001134B0344802098704B000B449B000F480344DC88E4B208010B4901448C71D888C0F30720C871D888C0B20871DB88C3F307234B716A
:401340000132D2B2082ABCD9FF22054B1A7030BC704700BF70600040EC82FF1FFC5F00400A600040074B1B78074A02EBC30253681A7C824203D903EBC0035869704700208F
:40138000704700BFDC82FF1F801E0000F8B5404B1B7813F0FF0F79D03D4B18780138C0B2FFF7E0FF047AC2683A4B1878C0B200236AE01178814264D13749095CC9B2557896
:4013C000A9425ED1917801F07F01D67806F00306DFF8C8E04D000D44AD000EEB05074FF0000C87F803C092F802C087F804C092F803C00EF805C095883D8192F90250002D24
:401400000DDA012E01D1072700E00D274D000D44AD00224E35446F7101266E700CE0012E01D1052700E009274D000D44AD001B4E35446F7100266E70DFF868E00F010EEB07
:4014400007060125B57001FA05F529448900134D29440D89C5F307250EF807500D89EDB27570CE88F6B20E4D3D44AE71CE88C6F30726EE71CE88F6B22E71C988C1F307210D
:40148000697108320133DBB2A34292D3F8BD00BFE182FF1FDD82FF1FCC82FF1FEC82FF1F70600040FC5F0040034B1A78034B03EBC2035868704700BFDC82FF1F801E0000C7
:4014C00008B5074B18780138C0B2FFF74BFF28B14268127900EBC203586908BD002008BDE182FF1FF8B500220EE0674E53009D18AD00741900217155A170E1702181A17206
:40150000617061710132D2B2082AEED940B90AE000225E49CA545E49CA540133DBB200E00023012BF4D95B4B1B7813F0FF0F00F0A980584B18780138C0B2FFF713FF436818
:40154000DB7913F0400F05D0534A137843F00103137004E0504A137803F0FE031370057A012461E0C16800235AE08A7802F07F02944252D1264604EB44029200424F3A4473
:40158000128992B28F88BA4206D204EB44029200DFF8F4E0724417810A783C4FBA5CD2B24F78BA4239D191F802C0374F72003244920007EB020E8EF804C091F803E007F82B
:4015C00002E0CA7802F0030291F90270002F11DA012A02D14FF0070C01E04FF00D0CDFF8A8E072009719BF00774487F805C001227A7012E0012A02D14FF0050C01E04FF085
:40160000090C214F4FEA460E0EEB060292003A4482F805C016460022727008310133DBB2AB42A2D30134E4B2082C9BD9C06800220CE0837803F07F0310F8084B03EB4303E4
:401640009B0016490B449C700132D2B2AA42F0D3FFF736FF124B1860002301210EE00A4C4A00501880002044C380028913449BB203F0010213449BB20131C9B20829EED9DF
:40168000FFF71CFEF8BD00BFEC82FF1FCC82FF1F5C83FF1FE182FF1FDF82FF1FF482FF1FE882FF1F08B5154B1A7902F07F02531EDBB2072B20D8530013449B0010490B445D
:4016C000997841F0010199700021D970597841F0020159701B7913F0800F05D01201094B13448D229A7004E01201064B134489229A70FFF7DDFB08BD002008BD0060004087
:40170000EC82FF1FFC5F0040264B1B7903F07F035A1ED2B2072A43D810B55A001A44920021490A44917801F0FE0191700021D17019017F241D484454517801F0FD0151706A
:40174000127912F0800F14D003EB4302920016490A445278D2B2012A05D11B0102461A440C23937019E01B01104A1A440D23937013E003EB430292000B490A445278D2B20C
:40178000012A05D11B01094A1A440823937004E01B01064A1A4409239370FFF789FB10BD0020704700600040EC82FF1FFC5F004010B50E4B1C79E4B20D4B18780138C0B28F
:4017C000FFF7D0FD43681B799C4201D9022C0AD8084A135DDBB208490B55044B9B78DBB21355012010BD002010BD00BF00600040E182FF1FCC82FF1F5C83FF1F10B59A4BFA
:401800001B78DBB20021994A118013F0800F00F09C80954A5278D2B20A2A00F25D81DFE812F058005B015B015B015B015B010B005B0181005B0189008B4BDB78DBB2012B88
:4018400009D1FFF731FE4268884B5A6012221A80FFF76EFC10BD844BDB78DBB2022B13D1814B9878FFF77EFD002800F0378142687E4B5A605A68D1785A68927842EA012207
:401880001A80FFF755FC10BD774BDB78DBB2032B05D01BE00A7811440133DBB201E000237349714A9278D2B29A4203D90A7812F0FF0FEFD10B7813F0FF0F00F011810B7896
:4018C0006A4A13805160FFF733FC10BD00F078F910BD13F0030317D0022B40F0038163490B80614B1B7903F07F0303EB43039B00604A13449A78D2B25F4B1A7000225A708D
:401900004B60FFF715FC10BD584902230B805B4B1A78D2B2584B1A7000225A704B60FFF707FC10BD514B01221A80554A5A60FFF7FFFB10BD4D4A012313804B4B1B79514910
:401940000B445360FFF7F4FB10BD474A5278013A0A2A00F2C980DFE812F04B00C7007800C7000B00C700C700C7001300C70030003D4B9B78DBB2444A1370FFF799FA10BD9B
:40198000394B9B7803F0FF041BB1601EC0B2FFF7E9FC04B110B9002C40F0A880384B1B78DBB29C4206D0364B1C700120374B1870FFF798FDFFF77CFA10BDFFF7F9FE002899
:4019C00000F09680284A1379DBB21279D2B230490A70304AD25C2B49C95CD3B28B4204D001222A4B1A70FFF7D1FCFFF761FA10BD03F00303012B17D04BB1022B7AD11A4B05
:401A00009B7813F0FF0F77D1FFF77EFE10BD164B9B78DBB2012B71D1184A137803F0FD031370FFF745FA10BD0F4B1B79DBB2012B66D80D4B98781B79DBB21749CA5C22EA27
:401A40000002CA54FFF734FA10BD03F00303012B31D01BB3022B55D1034B9B7813F0FF0F52D1FFF71FFE10BD00600040D082FF1FD41E0000EC82FF1F5C81FF1FDF82FF1F91
:401A8000E182FF1FCC82FF1FC882FF1FE082FF1FDD82FF1F5C83FF1FE482FF1F1D4B9B78DBB2012B32D11C4A137843F002031370FFF7FEF910BD174B1B79DBB2012B27D808
:401AC000144B98781B79DBB21449CA5C22EA0002CA54FFF7EDF910BD002010BD002010BD002010BD002010BD002010BD002010BD002010BD002010BD002010BD002010BDBC
:401B0000002010BD002010BD002010BD002010BD002010BD00600040DF82FF1FE482FF1F044B1B7813F0800F01D0024B5B780020704700BF00600040024B1878C0F38010A6
:401B4000704700BF8F450040F0B583B086460F4616461D460A4C0120207000230093019371463A46FEF7C8FD207831462A46FEF79DFD20780221FEF787FD207803B0F0BDA7
:401B80002481FF1FF0B583B086460F4616461D460A4C0023237000930193184671463A46FEF7AAFD207831462A46FEF77FFD20780221FEF769FD207803B0F0BD2581FF1F84
:401BC00008B5124B1B7803F00303012B02D0022B04D00FE00D4B1B79DBB20CE00B4B1B7903F07F0303EB43039B00094A13449B78DBB200E00023074A1268D35C012B02D178
:401C000000F00AF808BD002008BD00BF00600040F482FF1FE882FF1F08B55B4B1A7802F00302D978C8B2197901F07F011B7813F0800F5FD0022A13D1534B5B78DBB2812BC5
:401C400040F08880012840F08780504A0323138001EB41014E4B0B445360FFF769FA08BD012A7BD1484B5B78DBB2832B28D004D8812B07D0822B19D072E0842B2AD0FF2B68
:401C800032D06DE0012807D1404B01221A80414A5A60FFF74DFA08BD022863D13B4B02221A803D4A5A60FFF743FA08BD02285BD1364B02221A80394A5A60FFF739FA08BDAA
:401CC000022853D1314B02221A80354A5A60FFF72FFA08BD02284BD12C4B02221A80314A5A60FFF725FA08BD0022284B1A80FFF747FA08BD022A13D1234B5B78DBB2012B80
:401D000038D1012838D1214A0323138001EB41001F4B03445360244B1970FFF731FA08BD012A2BD1184B5B78DBB2012B28D1012806D1164B1A80174A5A60FFF721FA08BDDA
:401D400002281FD1114B02221A80134A5A60FFF717FA08BD002008BD002008BD002008BD002008BD002008BD002008BD002008BD002008BD002008BD002008BD002008BD75
:401D8000002008BD002008BD00600040D082FF1F6483FF1F8083FF1F6083FF1F2881FF1F2C81FF1F3081FF1F7F83FF1F0E4B70B51E460E4C0025E41AA410A54204D056F885
:401DC000253098470135F8E700F07CF9084B094C1E46E41AA4100025A54204D056F8253098470135F8E770BDD0200000D0200000D0200000D820000010B5431E0A449142C4
:401E000004D011F8014B03F8014FF8E710BD03460244934202D003F8011BFAE77047000000000000005100401000605100401000C0510040100000000140800A000B014083
:401E40000005001401408006001B0140000100400140000A004C0140000200500140200020450040F40600480800800A0140FC0600488000801A01407C07004880000000B0
:401E800001000000881E000001000000B0200000000000000000000001000000A01E0000010000004820000001000000CC1E00000000000000000000000000000000000097
:401EC00000000000C81E0000010100000101020DC000010004030904440343007900700072006500730073002000530065006D00690063006F006E00640075006300740046
:401F00006F007200200043006F00720070006F0072006100740069006F006E001E03550053004200200041007500640069006F002000440065006D006F00220343006F0077
:401F40006E00740072006F006C00200049006E006500720066006100630065002803530074007200650061006D0069006E006700200049006E007400650072006600610037
:401F8000630065002C0343007900700072006500730073002000530065006D00690063006F006E0064007500630074006F00720024034300790070007200650073007300B2
:401FC0002000550053004200200041007500640069006F002803430079007000720065007300730041007500640069006F0043006F006E00740072006F006C001C035A0065
:40200000650072006F00420061006E006400770069006400740068002E0341007500640069006F00530074007200650061006D0069006E006700200053007000650061004F
:402040006B0065007200000009026700020100803209040000000101000709240100011E0001010C2402010101000100000000092403020103000100090401000001020014
:4020800008090401010101020009072401010002000E24020101010800007D00007D000905020DC00001000007250101000000001201000200000008B40401200000050687
:4020C00000010000F8B500BFF8BC08BC9E4670474D00000091020000F8B500BFF8BC08BC9E46704729000000F82000000881FF1F3000000050020000000000007F80000098
:40210000030000000000E02EC05D00001800000000366E01FFFF000001800000FF7F00000100000000000000000000000000000000000000000000000000000000000000B6
:40214000000000000000000000000000000000000000000000000000000000000000000000000000000000000000000000000000000000000000000000000000000000005F
:40218000000000000000000000000000000000000000000000000000000000000000000000000000000000000000000000000000000000000000000000000000000000001F
:4021C00000000000000000000000000000000000000000000000000000000000000000000000000000000000000000000000000000000000000000000000000000000000DF
:40220000000000000000000000000000000000000000000000000000000000000000000000000000000000000000000000000000000000000000000000000000000000009E
:020000040003F7
:0200000480007A
:4000000001450040075200400264004002650040010101403B040140250501404F06014037070140110901400C0A0140360B0140010F0140051501404516014040170140FD
:40004000641801404B190140271A0140451B014006400140014101400142014001430140014401400B4501400946014008470140064801400E490140014C0140064D014068
:4000800006500140025101407E021018115818A01920284029407C40860F8B0F890D8A0DE208010D05020603070D09020A020B081001110D150D190D1A031D0D25022704D4
:4000C00029012B023203350F3B20580459045C015F01811184048511860388018A028F11911192129506960C970899029A019B0C9D089F06A50AA704A808A911AA03AF0107
:40010000B10EB20FB410B501B710BB02BF50D440D804D904DB04DF010018052408010A080E280F8013C0152018101E281F0420042520278229242F2B335935243601378060
:40014000380439203A023E4645204608661867028140C066C27AC440CA76CCFFCED7D870E201008006FF081F0A200CC00E01129F1660187F1A801CC01D011E022090210199
:40018000224024C0260828C02A04350136FF382039203E504032410642404405450E46FB47DC483D49FF4AFF4BFF4C224EF04F0850045602572C580459045A045B045F0168
:4001C00062C0644065016610671168C069016B116C406D016E406F0187708D04917095049948A106A301A508A720A918AD01AF02B170B307B708BB08BF41D904DC10DF01B7
:40020000052606020D100E2A0F8017151C041F4020602204230125102610288129242F4032053320378039803B08452847024D244E0255045618574267406E466F5D7603AE
:400240008C04918093489520964C9B029C019D249E129F51A404A601A76AB410C0F0C2F0C470CA8FCC17CE0AD0E0D230D8808D108F01900491109204930497029A269B4134
:400280009E40A110A301A508A620A702E440E810090E0D040F09110313041505170A330F390859045C105F010404064007050C900D080E80168017501E802010240A2510BA
:4002C000268027012E022F0A310832083301341036A938103A403E544408450846404C054F0656A4570867026D106E566F5474807602820486408C048E4094109808B418F8
:40030000C0F0C2F0C4D0CAB0CCF3CE7CD0E0D230D810E402E2088E02A602AC84E410EE0200340101043F05010640080809040A750C340D101101144B150816301761181458
:400340001A201B401C141D012034210125A226342708282029072A022BD83040313F327833E03407380839023A303E013F015409580459045B045F01801C8411866288106B
:400380008A0C8C248E10900C92109421969E98149A089CC0A408A870AA0FAC1CB030B40FB6C1B880BA02D804DF0100040346040805100606074009080A460D080E040F021F
:4003C00011081205151016081705180C19221A021B031C401D3C1E081F2027902D222F20350437513D203E063F805C405D145F026701831091049244930196029A0B9B47BE
:400400009C809D269F80A114A340A404A528A606A720A840AC01B010C0FFC2EFC477CAE0CCF0CEF0D6F0D810EA02000A04080504060208020B040C0A1303141116081808B1
:4004400019041A021C0C1D041E13200321042214240825012706280229012A082B062D073010320F35073A083B203E014060410149FF4AFF4BFF4DA04F045018540958042A
:4004800059045A045B045C115D125F01604062C06440654066C068C06AC06CC06EC092019A069B019E02A501A60CB002B208B401B604B701BE01C060C105C5D1C602C807DD
:4004C000C9FFCAFFCBFFCDAFCE0FCF04D018D280D405D804D904DA04DB04DC22DD22DF01E040E2C0E440E540E6C0E8C0EAC0ECC0EEC0040405200606076009820A080C80E9
:400500000D480E04102015141709184019981A081D081E401F0822402620270829082D042E022F0A302037613D103E044580482049114B804E0451805340580859015A8051
:400540005D205E405F05640271027C027D0285808C48900491109204930597029A269B41A080A303A508A620AF01B080B240B302C0F0C2EBC474CAF2CCB4CE60D010D22C18
:40058000D6FBD810E008EC8007020E020F021E061F0129012E01300133023404360237013F044040410649FF4AFF4BFF4DA04F04501852805405580459045A045B045C339C
:4005C0005D335F01604062C06440654066C068C06AC06CC06EC00040040405800602076009400D080E440F03100215901701184019201A021D041E401F012244250127085A
:4006000029202C802D802F083180376938403A083B403D103E044040460848044D024F40540455C0560859025A886504662067017002860190049190920497029A229B4100
:40064000A080A108A309A501AF08C0B1C2F1C4D1CAB4CCF8CE6AD021D214D60BD870E40235803E408580CC20CE20E2109640964096408404040251205B025C106120674019
:400680009C04C004D404D606D8038740941097409C04A520B401B702E808EA020C048D209C04A520B410C204E402E808830896409A02AA02E220EE200B011D205F08660203
:4006C000812082408F0196409A029B08C240C680D680D8808608520866088608A208D404D80100030A030C02100F1A011C0E000910020000020202020202020056000900B3
:40070000040A0004000C04020702380C010E00000A0110020402000004070000600E00000000000004040000040200057F0000000008000702000000000000103405600051
:4007400002DEFB0C1FFFFFFF2200F008040000000000022004040404111100010000C00040011011C00100114001400100000000000000000000000000000000010000008C
:40078000000D0100000D00000100000004111A020A02140D010D0000000D0100061218080000000001120004120D0C001E100100000F000000000220000004015002000072
:4007C00000D0010216FFFFFF00AF0F04180000004000000004040404111300014000C0004040C000C000C000C000C000000000000000000000000000000000004000000044
:4008000000000000C0000000000000000000800002FCFC00DC00000040B0B000A00000007F00000000000000304F4F004100000000000000000000000000000000000000D4
:400840000000000000000000000000000000000000000000000000000000000000000000000000000000000000000000000000000000000000000000000000000000000078
:400880000000000000000000000000000000000000000000000000000000000000000000000000000000000000000000000000000000000000000000000000000000000038
:4008C00000000000000000000000000000000000000000000000000000000000000000000000000000000000000000000000000000000000000000000000000000000000F8
:4009000000000000000000000000000000000000000000000000000000000000000000000000000000000000000000000000000000000000000000000000000000000000B7
:0200000490006A
:0400000000004005B7
:0200000490105A
:04000000BC90ACAF55
:0200000490303A
:02000000F1808D
:0200000490402A
:4000000000000000000000000000000000000000000000000000000000000000000000000000000000000000000000000000000000000000000000000000000000000000C0
:400040000000000000000000000000000000000000000000000000000000000000000000000000000000000000000000000000000000000000000000000000000000000080
:400080000000000000000000000000000000000000000000000000000000000000000000000000000000000000000000000000000000000000000000000000000000000040
:4000C0000000000000000000000000000000000000000000000000000000000000000000000000000000000000000000000000000000000000000000000000000000000000
:0200000490501A
:0C00000000012E12306900012E2021E9C1
:00000001FF