:4000000000800020110000000D0600000D06000008B5044B1A6803F53F5302331A6000F0F7FA00BFFA46004010B5054C237833B9044B13B10448AFF300800123237010BD60
:400040006881FF1F00000000606D0000084B10B51BB108480849AFF300800848036803B910BD074B002BFBD0BDE81040184700BF00000000606D00006C81FF1F0881FF1FE7
:400080000000000030B585B00020012100F02AFF02F08EFC0720062100F068F9002400F0F1FD80B2A042FAD000F0ECFD84B200F0E9FD0028F3D10DF10E00114900F03CFA73
:4000C0000028ECD0BDF80E200E4BA3FB0213D21A03EB5203C3F34F15062DE0D8284600F077F9284601A90A2206F0CDFD01A800F0EFFF0A2000F096FC034800F0E9FFCEE71C
:4001000018B3FF1F6DC1166C646D000008B562B600F05AFCFFF7B6FF10B50446002000F061FC204600F012FC00F004FC10F0010FFAD010BD10B50446012000F053FC204643
:4001400000F004FC00F0F6FB10F0010FFAD010BD70B506460D46012000F044FC002408E0305D00F0F3FB00F0E5FB10F0010FFAD00134AC42F4DB70BDFEE700BFFEE700BF6A
:4001800008B50120FFF7C8FF0A2000F04BFC3620FFF7C2FF8820FFF7CDFF3A20FFF7BCFF5520FFF7C7FF1120FFF7B6FF2920FFF7B3FFFA2000F036FC08BD00BF024A13683C
:4001C00001331360704700BF1CB3FF1F10B500F003FD002409E0204600F014FD20B92046064900F007FD02E00134042CF3D9042C02D9002000F014FC10BD00BFBD010000C2
:4002000008B5FFF7E3FF08BD08B504484FF4405102F046F8024802F065FB08BD8481FF1F486F000008B5FFF7ABFF08BD30B5A1B000241B941C941D941E941F9401A821461B
:40024000682206F048FD154815492246234602F0B5FC05462046F0214FF4A07204F0D6FA2046F0214FF4A07204F0E8FA04231D9328461BA903F03FF80A4B01930A4B029307
:400280000A4B04930A4B06930A4B0893284601A9094A0A4B03F04DF821B030BDE47600008C760000190100003501000051010000790100007D010000A53D0000053A0000A7
:4002C000012904D108B5FFF7ADFF002008BD4FF0FF30704770B504460D464FF47F0002F0BFFA2646C4F101001C4B1B8803EB400090FBF4F01A4B18602C46C5F10101194B33
:400300001B8803EB410191FBF5F1174B196000230DE05D1C124A12685B0002FB05321046002102320F4B1B8802F05CFC2B46721E9A42EEDC00220DE0551C0B4B1B6852006B
:4003400003FB052300201946044A1288023302F049FC2A46631E9342EEDC70BD24B3FF1F20B3FF1F2CB3FF1F28B3FF1F38B505460C464FF4A0720A4B1A80F022094B1A801D
:40038000094B1860094B19606FF07F4002F066FA02F0DEFA28462146FFF79CFF38BD00BF24B3FF1F2CB3FF1F34B3FF1F30B3FF1F024B1B68023300FB03F0704720B3FF1FBD
:4003C000024B1B68023300FB03F0704728B3FF1F2B4B1B68984252D02DE9F04F85B0044603901846FFF7E4FF82462046FFF7E0FF1AF1000318BF012301938346031C18BF68
:4004000001230293002630E03046FFF7D9FF0546013CA41B18BF01246FF07F4002F020FA6F1CDFF86890D9F800205244DFF86080D8F800302B4401990AEB01003946013ACB
:400440001B1B02F0CFFB0F4802F00AFAD9F800205A44D8F800302B4402990BEB01003946013A1B1B02F0BEFB0136074B1C68A642CADB034B039A1A6005B0BDE8F08F704783
:400480000C81FF1FDEF7FC0030B3FF1F20B3FF1F28B3FF1F38B50446002000F013FCE4B2002000F003FC002519E014F0800F03D0012000F0EFFB02E0002000F0EBFB002063
:4004C00000F0F4FB0A2000F09BFA012000F0EEFB0A2000F095FA6400E4B20135EDB2072DE3D9012000F0E2FB0A2000F089FA002000F0DCFB0A2000F083FA0024254613E081
:400500006400A4B2012000F0D1FB0A2000F078FA002000F0CBFB0A2000F072FA00F0DEFB204384B20135EDB20B2DE9D9012000F0C9FB204638BD00BF2DE9F8438146884636
:4005400000259020FFF7A6FF9020FFF7A3FF07469020FFF79FFF0646D020FFF79BFFD020FFF798FF0446D020FFF794FF0135ADB221460346241A002CB8BF6442322C05DD1A
:40058000BA1B002AB8BF5242322ADADCFE2DD8D835D80B4403EBD3733E4406EBD67640F6FF72A2EB660292B2C3F34F03A3F5C873C3EB03131B01134981FB03011944DB172F
:4005C000C3EBE1239BB2EF2B00D9F023A2F5C87202EB820292010C4981FB02011144D217C2EBE12292B2B2F5A07F01D34FF4A072A9F80020A8F800300120BDE8F88300203A
:40060000BDE8F883930A20A9EF09E09EFEE700BF08B5104E104D16E029686B68AC68002204E051F8040B43F8040B0432A242F8D1E868002203E0002143F8041B04328242DF
:40064000F9D11035013E002EE6D106F0DFFAFFF75DFDFEE701000000747C000008B5124A124B1A60124A136843F40073136000230AE0032B03D80F4A52F8231000E00E494B
:400680000E4A42F8231001332F2BF2D90C4B1A780C4B1A70094A0C4B1A6000F0B1F800220A4B1A6008BD00BF0004FA050CED00E014ED00E0000000000D0600000080FF1FB2
:4006C000BC7600400481FF1F08ED00E00081FF1FFEE700BFF0B40022174611E050F82760F3B226F0FF0608E001EB420511F812406D78A5550132013BDBB2002BF4D10137B1
:40070000152FEBD9F0BC7047064B1B78DBB203F00701054A11701B09013213704422034B1A707047CF0100496E5800407658004008B50A46002106F0CEFA08BD38B5012255
:40074000244B1A80182202331A70062203F27E231A705222A3F580731A701F4B1B78DBB21E4A13704FF4E1621D4B1A8041F25122023B1A80002419250CE01A4B1B7803F0F3
:40078000010343EA440404F003044FF4F07000F037F9013D0DB1032CEFD115B90320FFF797FF114A4FF4807313800723137000230E490B7048200231087013700532137084
:4007C00002220B4B1A700B4A137843F00103137038BD00BF804000400F010049A14600402242004025420040044000400640004001400040A243004008B506F046FA08BD74
:4008000038B572B6314A137843F00403137000240CE02F4963001A1952000A4423445B00C8589188FFF784FF0134E4B2092CF0D900240BE02649A3001A1952000A44D06BB6
:40084000116C8022FFF7D8FF0134E4B2002CF1D04FF090401F49FFF73DFF1F4A137843F0020313701032137843F0020313701B4C237843F040032370A2F58632513A137884
:4008800043F010031370164816490A22FFF7B4FF154816490822FFF7AFFF154815490822FFF7AAFF144A137843F008031370134D01232B70FFF742FF81232B70FFF724FF77
:4008C0000F4821460E22FFF797FF38BDE8460040686D00005800004803500140A0430040F051004090020048225100409C02004852510040A40200482243004000480040FD
:40090000B043004008B500F083F8094A137843F0200313700232137843F010031370013A137843F01003137000F076F808BD00BF9D640040014B1878704700BF6F64004006
:40094000014B1878704700BF6E640040034B1B7813F0040FFAD0024B187070476F6400404D64004008B501E00A4B1B780A4B1B7813F0200FF8D100F04BF8084B1A7842F00F
:4009800001021A701A7802F0FE021A7000F044F808BD00BF5D6400406E6400409D64004008B50F22064B1A70FFF7DCFFFFF7C2FFFFF7C6FF0023034A1370013A137008BD16
:4009C0008D6400408F64004008B5054B1B7823B9FFF7E6FF0122024B1A70FFF793FF08BD84B1FF1F044A137803F0DF03400100F02000184310707047205100400000000060
:400A00000230800803D000BF01380046FCD17047EFF3108072B6704780F31088704700BF01BE704710B5044605E0084B1868FFF7E7FFA4F50044B4F5004FF6D8034B5868CB
:400A400000FB04F0FFF7DCFF10BD00BF1081FF1F08B5034B1B7A03FB00F0FFF7D1FF08BD1081FF1F70B504460E46074B1D680F2802D90020FFF7D4FF04F00F0455F82400A6
:400A800045F8246070BD00BF08ED00E070B504460E46074B1D681F2802D90020FFF7C0FF04F01F04103455F8240045F8246070BD08ED00E038B504460D46072902D90020DF
:400AC000FFF7AEFF1F2C02D90020FFF7A9FF04F01F0000F1604000F564406D01EDB2057038BD00BF024A136843F002031360704710E000E008B5FFF7F5FF034A136843F061
:400B00000103136008BD00BF10E000E020F07F40014B1860704700BF14E000E0012805D1054A136843F0040313607047024A136823F004031360704710E000E0024B186838
:400B4000C0F30040704700BF10E000E010B5FFF7F5FF01280BD107E0054B03EB84035B6803B19847013400E00024042CF4D910BD88B1FF1F0022014B1A60704718E000E0B5
:400B800008B5002305E00F4A02EB8302002151600133042BF7D90F200B49FFF763FF0120FFF7BCFF094BDB680948A0FB03308009FFF7ACFFFFF7DEFF4FF40042054B1A60F1
:400BC00008BD00BF88B1FF1F4D0B00001081FF1FD34D621000E100E008B5054B9B6923B9FFF7CEFF0122024B9A61FFF783FF08BD88B1FF1F024B03EB800358685960704723
:400C000088B1FF1F024B03EB80004068704700BF88B1FF1F134B1B78DBB20360124A127843EA02230360114A127843EA024303600F4A127843EA026303600E4B1B78DBB2A6
:400C400043600D4A127843EA022343600B4A127843EA024343600A4A127843EA02634360704700BF0301004904010049EC4600400201004901010049000100490501004941
:400C800006010049024B1878C0F34010704700BF51510040044A137803F0F703C00000F0080018431070704750510040044A137803F0FD03400000F002001843107070472B
:400CC00050510040044A137803F0FB03800000F0040018431070704750510040024B1878C0F30010704700BF51510040F8B5FFF78FFE0746404A137843F0010313701032DC
:400D0000137843F00103137001263C4B1E700225943B1D7002F5E2521B32137803F07F0313700020FFF794FE354C237803F0F9032370344A137803F0DF03137023783343FC
:400D400023703046FFF784FE2820FFF781FE2E4B1A7802F07F021A701A7802F0BF021A7023782B4323702846FFF772FE237843F0040323700024254B1C7001331C70384628
:400D8000FFF74AFE17200721FFF794FE17202049FFF77CFE18200721FFF78CFE18201D49FFF774FE15200721FFF784FE15201A49FFF76CFE20460721FFF77CFE2046174987
:400DC000FFF764FE30460721FFF774FE30461449FFF75CFE28460721FFF76CFE28461149FFF754FE0C200721FFF764FE0C200E49FFF74CFEF8BD00BFA54300409D60004024
:400E00009443004012600040F851004084600040E1160000B1140000DD160000251600005D16000099160000E916000008B5214B18700023204A1370204A1370204A137096
:400E4000204A1370204A1370204A1370204A1370204B4FF400021A604FF080721A604FF400121A6001221A6002221A6004221A6011B1012906D00BE0174A137803F0FE03B2
:400E800013700AE0144A137843F00103137004E0114A137843F00103137003220F4B1A708022203B1A700120FFF7AAFD04220C4B1A7008BD51B3FF1F54B3FF1F70B3FF1FFC
:400EC00073B3FF1F68B3FF1F72B3FF1F75B3FF1F50B3FF1F00E100E009600040286000401260004038B505460C46064B1B7823B9FFF7FCFE0122034B1A7028462146FFF7E7
:400F000095FF38BDA4B1FF1F00230A4A13700A4A13700A4A13700A4A13700A4A13700A4A13700A4A13700322094B1A708022203B1A70704754B3FF1F70B3FF1F73B3FF1FC6
:400F400068B3FF1F72B3FF1F75B3FF1F50B3FF1F28600040431EDBB2072B3BD8F0B4074600EB40039B001C4C2344DB889BB2C3F500739A4207D900EB40039B002344DA88E1
:400F8000C2F5007292B200EB40039B00124C2344DB7843EA1223114D04012E192B55D3B2737039B909E0CE5C3D010D4C665501339BB200E000239342F5D3430003449B0052
:400FC000054A134400225A705A79D2B20001054B1A54F0BC704700BF78B3FF1FFC5F004078600040FE5F00400246002001E0013080B2135C002BFAD1704700BF10B4FF2420
:4010000000220EE00A4B9B5C03EB43039B0009490B449B78DBB2834201D1144602220132D2B2012AEED920465DF8044B704700BF40B3FF1F80B3FF1F10B5204C2079FFF7E4
:40104000DDFF237813F0800F0ED06378DBB2212B2FD11B4B07221A80C0EBC000194A1044586000F093FA10BD144B5B78DBB2202B02D0222B10D01EE0114A07231380C0EBBE
:40108000C00310490B4453600F4A135C43F00103135400F0A3FA10BD084B9B780B4A22F81030094A135C43F00203135400F02EF910BD002010BD002010BD00BF00600040BF
:4010C0005CB3FF1F2081FF1F38B3FF1F4CB3FF1F2DE9F8438046224B1B78224AD65CF6B2FFF782FF05460027344606EB46039B001D4A13441B899BB2AB4208D206EB460399
:401100009B001344B3F808901FFA89F900E0A946304608EB07014A46FFF71CFFC9EB0505ADB245B906EB46039B000F4A13441B899BB2994510D14F44BFB204EB44039B00D9
:40114000094A13445B7813F0FF0FF6D025B9304600210A46FFF7FEFE002DC5D1BDE8F883A5B1FF1F3CB3FF1F78B3FF1FC37803F0030390F9020000280FDA032B06D002F0F1
:4011800001030B48C15442F001020EE0C2F380030848C15442F0040207E0032B05D0C2F340030548C15442F002021046704700BF3CB3FF1F40B3FF1F44B3FF1F1C4B19785A
:4011C0001C4A13880B449BB2138000230EE01A4A51680978C9B21948C1545168013151600133DBB21188013989B21180124A128892B20AB1072BEAD90D4A1278D2B2082AA2
:4012000000D05BB10E490A7882F080020A700F210C4A117002210C4A117004E0022209490A7009490A70094A1370014A1370704750B3FF1F52B3FF1F5CB3FF1F006000407E
:40124000E6B3FF1F71B3FF1F54B3FF1F74B3FF1F0222074B1A708022064B1A700F22064B1A700023054A1370054A13700120704754B3FF1FE6B3FF1F71B3FF1F50B3FF1FA4
:4012800074B3FF1F08B5FFF799FF08BD10B4184B197801F00F010239C9B2164A13880B449BB21380002010E0134B5C68134A125CD2B222705A6801325A600130C0B20139A1
:4012C000C9B21A88013A92B21A800B4B1B889BB20BB10029E8D10A4B19700A4A137883F0800313700B22084B1A705DF8044B70472960004052B3FF1F5CB3FF1F0060004080
:4013000074B3FF1FE6B3FF1F71B3FF1F0623064A1370064A13708022054B1A700022054B1A700120704700BF54B3FF1F71B3FF1FE6B3FF1F74B3FF1F064B9B6843B1054B96
:401340009A6810709A6804490988518000229A60704700BF5CB3FF1F52B3FF1F08B5134B1A78D2B21A701B78DBB213F0800F02D00F4A137008BD0220FFF7DEFF0D4B1B7898
:4013800003F06003202B05D0402B06D043B900F095FC06E000F04EFE03E000F037FE00E0002010B90322024B1A7008BD2860004071B3FF1F0060004008B5084B1978084AA8
:4013C00013880B449BB213800022064B1A700120FFF7B2FF0322044B1A7008BD50B3FF1F52B3FF1F54B3FF1F71B3FF1F08B50B4B1B78DBB2042B06D0062B07D0022B0BD1A7
:40140000FFF7DAFF08BDFFF741FF08BD0320FFF793FF0322024B1A7008BD00BF54B3FF1F71B3FF1F08B50022044B1A700120FFF783FF0322024B1A7008BD00BF54B3FF1F95
:4014400071B3FF1F08B50B4B1B7813F0FF0F07D0084A137843F0800307490B70002313700022064B1A700120FFF766FF0322044B1A7008BD72B3FF1F0860004054B3FF1F4C
:4014800071B3FF1F08B5094B1B78DBB2042B06D0062B07D0022B07D1FFF7F4FE08BDFFF7C1FF08BDFFF7CEFF08BD00BF54B3FF1F08B5284B1B78DBB213F0100F48D013F086
:4014C000800F0CD003F00F03012B16D1FFF746FF214B1B7813F0800F11D1012312E013F0400F03D0FFF7CEFF01230BE013F0200F07D0FFF77BFF012304E0002302E0002305
:4015000000E0002323B3134B1B7813F0800F1FD1124B1B78124A12781343124A13701278D2B29A4214D10C4B1B78DBB2094A127812F0800F07D1084B1B78DBB2054A137083
:40154000137803F00F03044A1278D2B29342EAD108BD00BF2860004071B3FF1FE6B3FF1F74B3FF1F296000400022064B1A80064B9B682BB1044A916800230B7092685380AD
:40158000704700BF52B3FF1F5CB3FF1F08B50F4B1B889BB213B9FFF75BFE15E002220C4B1A7000220B4B1A70FFF7DEFF0A4AD179937943EA0123054A128892B29A4201D996
:4015C000024A1380FFF7FAFD012008BD5CB3FF1F54B3FF1FE6B3FF1F0060004008B504220B4B1A7080220B4B1A70FFF7BDFF0A4AD179937943EA0123084A128892B29A4292
:4016000001D9064A13800B22054B1A70012008BD54B3FF1FE6B3FF1F006000405CB3FF1F71B3FF1F0A4A137803F0FE031370094B9B7C094B1B7B03F00303012B04D0064A21
:40164000D37B83F08003D3730122034B5A7370470B600040FC5F004078B3FF1F0B4A137803F0FD0313700A4B93F82230094B1B7E03F00303012B04D0064AD37E83F0800357
:40168000D3760122034B5A76704700BF0B600040FC5F004078B3FF1F0D4A137803F0FB0313700C4B93F832300B4B93F8243003F00303012B06D0084A92F8273083F08003A8
:4016C00082F827300122044B83F82520704700BF0B600040FC5F004078B3FF1F704700BF08B5FFF711FC08BD08B500F09BFC08BD70B588B0054603AC174E0FCE0FC43368D7
:40170000237035B322232B7003236B7001A8FFF781FA002402231AE008AA224412F81C2C08A901EB121111F8141CE954581C00212954981C02F00F0208AE324412F8142C11
:401740002A54DA1CA9540134E4B20433DBB2212BE2D908B070BD00BFB06D000010B401223DE0114613010C242148C45402EB42039B00204803445B7913F0FF0F12D002EB51
:4017800042039B0003441B7913F0800F04D01001194B03449C700AE01001174B03440820987004E01001144B0344802098704B000B449B000F480344DC88E4B208010C49FE
:4017C00001448C71D888C0F30720C871D888C0B20871DB88C3F307234B710132D2B2082ABFD9FF22054B1A705DF8044B704700BF7060004078B3FF1FFC5F00400A600040B6
:40180000074B1B78074A02EBC30253681A7C824203D903EBC003586970470020704700BF51B3FF1FC46D0000F8B5404B1B7813F0FF0F79D03D4B18780138C0B2FFF7E0FF00
:40184000047AC2683A4B1878C0B200236AE01178814264D13749095CC9B25578A9425ED1917801F07F01D67806F00306DFF8C8E04D000D44AD000EEB05074FF0000C87F8A4
:4018800003C092F802C087F804C092F803C00EF805C095883D8192F90250002D0DDA012E01D1072700E00D274D000D44AD00224E35446F7101266E700CE0012E01D105277D
:4018C00000E009274D000D44AD001B4E35446F7100266E70DFF868E00F010EEB07060125B57001FA05F529448900134D29440D89C5F307250EF807500D89EDB27570CE8848
:40190000F6B20E4D3D44AE71CE88C6F30726EE71CE88F6B22E71C988C1F30721697108320133DBB2A34292D3F8BD00BF73B3FF1F68B3FF1FE4B3FF1F78B3FF1F7060004081
:40194000FC5F0040034B1A78034B03EBC2035868704700BF51B3FF1FC46D000008B5074B18780138C0B2FFF74BFF28B14268127900EBC203586908BD002008BD73B3FF1F6B
:401980002DE9F84300220EE06F4E53009D18AD00741900217155A170E1702181A172617061710132D2B2082AEED940B90AE000226649CA546649CA540133DBB200E0002313
:4019C000012BF4D9634B1B7813F0FF0F00F0B980604B18780138C0B2FFF712FF80464368DB7913F0400F05D05B4A137843F00103137004E0584A137803F0FE03137098F898
:401A000008704FF0000901266CE0D8F80C50002464E0AB7803F07F039E425CD1314606EB46039B00484803441B899BB2A888834205D206EB46039B00434A134418812B7865
:401A40004248C35CDBB26878834244D195F802C03D484B000B449B0000EB030E8EF804C095F803E000F803E0EB7803F0030395F90200002811DA012B02D14FF0070C01E0AB
:401A80004FF00D0CDFF8C0E04B0058188000704480F805C00123437012E0012B02D14FF0050C01E04FF0090C27484FEA410E0EEB01039B00034483F805C0194600234B708B
:401AC000AB790A2B01D0022B05D1284631464A46FFF74CFB814608350134E4B2BC4298D30136F6B2082E90D9D8F80C0000220CE0837803F07F0310F8084B03EB43039B00CD
:401B000016490B449C700132D2B2BA42F0D3FFF725FF134B1860002301210EE00A4C4A00501880002044C380028913449BB203F0010213449BB20131C9B20829EED9FFF7BF
:401B40000DFEBDE8F88300BF78B3FF1FE4B3FF1F58B3FF1F73B3FF1F75B3FF1F80B3FF1F6CB3FF1F08B5154B1A7902F07F02531EDBB2072B20D8530013449B0010490B4404
:401B8000997841F0010199700021D970597841F0020159701B7913F0800F05D01201094B13448D229A7004E01201064B134489229A70FFF7ABFB08BD002008BD00600040F4
:401BC00078B3FF1FFC5F0040264B1B7903F07F035A1ED2B2072A43D810B55A001A44920021490A44917801F0FE0191700021D17019017F241D484454517801F0FD015170E9
:401C0000127912F0800F14D003EB4302920016490A445278D2B2012A05D11B0102461A440C23937019E01B01104A1A440D23937013E003EB430292000B490A445278D2B247
:401C4000012A05D11B01094A1A440823937004E01B01064A1A4409239370FFF757FB10BD002070470060004078B3FF1FFC5F004010B50E4B1C79E4B20D4B18780138C0B23F
:401C8000FFF7BEFD43681B799C4201D9022C0AD8084A135DDBB208490B55044B9B78DBB21355012010BD002010BD00BF0060004073B3FF1FE4B3FF1F58B3FF1F10B59B4B0E
:401CC0001B78DBB200219A4A118013F0800F00F0AD80964A5278D2B20A2A00F27281DFE812F06900700170017001700170010B007001920070019A008C4BDB78DBB2012BD5
:401D000009D1FFF71FFE4268894B5A6012221A80FFF73CFC10BD854BDB78DBB2022B13D1824B9878FFF76CFD002800F04C8142687F4B5A605A68D1785A68927842EA01227F
:401D40001A80FFF723FC10BD784BDB78DBB2032B05D02CE00A7811440133DBB201E000237449724A9278D2B29A4203D90A7812F0FF0FEFD16D4B9B7813F0FF0F0BD06B4B1B
:401D80009B78DBB26C4A127C934204D16B4C2046FFF7AEFC21460B7813F0FF0F00F015810B78634A13805160FFF7F0FB10BD00F041F910BD13F0030317D0022B40F0078169
:401DC0005B490B80594B1B7903F07F0303EB43039B005B4A13449A78D2B25A4B1A7000225A704B60FFF7D2FB10BD514902230B80554B1A78D2B2534B1A7000225A704B6091
:401E0000FFF7C4FB10BD4A4B01221A804F4A5A60FFF7BCFB10BD464A01231380434B1B794B490B445360FFF7B1FB10BD3F4A5278013A0A2A00F2CD80DFE812F04B00CB00B3
:401E40009600CB000B00CB00CB00CB001300CB003000364B9B78DBB23E4A1370FFF756FA10BD324B9B7803F0FF041BB1601EC0B2FFF7C6FC04B110B9002C40F0AC80334BCA
:401E80001B78DBB29C4206D0304B1C700120324B1870FFF775FDFFF739FA10BDFFF7E8FE002800F09A80214A1379DBB21279D2B22A490A702A4AD25C2549C95CD3B28B42AE
:401EC00004D00122244B1A70FFF7AEFCFFF71EFA10BD03F00303012B17D04BB1022B7ED1124B9B7813F0FF0F7BD1FFF76DFE10BD0E4B9B78DBB2012B75D1134A137803F0B2
:401F0000FD031370FFF702FA10BD084B1B79DBB2012B6AD8054B98781B79DBB21149CA5C22EA0002CA54FFF7F1F910BD006000405CB3FF1F2C6E0000106F0000ECB3FF1F00
:401F400078B3FF1FA8B1FF1F75B3FF1F73B3FF1FE4B3FF1F72B3FF1F70B3FF1F68B3FF1F58B3FF1FE8B3FF1F03F00303012B17D04BB1022B3BD1224B9B7813F0FF0F38D1E8
:401F8000FFF7F0FD10BD1E4B9B78DBB2012B32D11C4A137843F002031370FFF7B7F910BD174B1B79DBB2012B27D8154B98781B79DBB21549CA5C22EA0002CA54FFF7A6F996
:401FC00010BD002010BD002010BD002010BD002010BD002010BD002010BD002010BD002010BD002010BD002010BD002010BD002010BD002010BD002010BD002010BD00BF72
:402000000060004075B3FF1FE8B3FF1F044B1B7813F0800F01D0024B5B780020704700BF00600040024B1878C0F38010704700BF8F45004008B5124B1B7803F00303012BEA
:4020400002D0022B04D00FE00D4B1B79DBB20CE00B4B1B7903F07F0303EB43039B00094A13449B78DBB200E00023074A1268D35C022B02D1FEF7E0FF08BD002008BD00BF87
:402080000060004080B3FF1F6CB3FF1F074B10B55A685C6A01325A605A6B02EBC0014C60002102F83010586210BD00BF10B4FF1F10B50E4944680F2301EBC302126C9442C5
:4020C0000A4A03D213F1FF33F6D210BD0F2B0CD81168091B11608168C06801B1486008B1016010BD02EBC303596410BD10B4FF1FF8B5274E0546F368B26B013B08181344B7
:4021000098420C4605D84B591BB943681D44FFF7CFFFB36B9C420BD954F8043C5B42E718E3582BB97B6838461D443C46FFF7C0FF0F2306EBC302126C954203D213F1FF33E6
:40214000F7D223E00F2B21D8083306EBC30251686019002284E82400A160246140F8045C04F1080001B1486006EBC303A160E260586033680649EA1896F8293032602BB91B
:40218000CB689B1A8A68934288BF8B602846F8BD10B4FF1F2DE9F74F234F8346B846FE68BC6B013E264494E82800A3BB61198E4231D954F805A0BAF1000F2CD07B6B13F880
:4021C0003A30012B27D1D8F82C302046D1F8049000930191FFF76CFF0199D8F83420086802EBC002546020464A4604F059FD009B04EB09019A4508BFD8F83430284604BF6C
:402200005B1BC8F83430FFF773FFBBF1000F01D0584505D24D462C44A642C4D8012000E0002003B0BDE8F08F10B4FF1F28B1034BDA6B026002B15060D863704710B4FF1F36
:40224000034B5B6B03EBC00040680830704700BF10B4FF1F054BDA690132DA615A6B12F83030013302F83030FFF7EABF10B4FF1F30B50368094953F8085C4C6B14F83530AC
:40228000012B03D9CA690AB1013ACA61013B04F8353000230360184630BD00BF10B4FF1F024B21F00301186059607047ACB1FF1F10B5044660B1074B5B6B03EBC003596844
:4022C0004868FFF715FF2046BDE81040FFF7DEBE10BD00BF10B4FF1F2DE9F041224CE36A3BB9224B9D685B680835B3FBF5F5023503E023691D1D05EBD305E80000F0C2F88F
:40230000804660B3616B226901EBC0035E68184B08361B68D2003046E76A9847226966631346C4F82C80691E8B4205D2013306EBC30040F8043CF7E706EBC3064FF00008DD
:40234000C6F80480636862629B1A2B446360256138463FB1FFF7ACFF4046BDE8F0810120BDE8F081BDE8F08110B4FF1FACB1FF1F5C81FF1F70B5184A92F8283053BB012334
:4023800082F82830154B1021D960996811B95968890899605A2111621026002102EBC10006FA01F5013110290B4C0564F6D158681968A0F114030B440125022222616363C5
:4023C000A163E0605D6065626560FFF791FEFFF783FF256370BD00BF10B4FF1FACB1FF1F2DE9F0410746264E0337FFF7C3FF27F00307306C0437F26B874238BF07461446CC
:4024000034B154F8043C9F4223682CD01C46F7E7F368B26B02EB030858F8045CC5EB08052B6833B12046FFF7B5FE58F8045CC5EB08052B680BBB6B689F421EDC28461C1D05
:40244000FFF736FEF3686868DB1BF3607369E41B3B44C01B2C44736102D02946FFF748FE44F8047C09E00BB161685960616801B10B60A24201D12368F3632046BDE8F081EC
:4024800010B4FF1F2DE9F8430446394EFFF772FF356C3368AC4224BF033424F003050C35AB42334C3ED3236B62689A420FD97368776A013B7360736B4FEAC70803EB0802CE
:4024C00052687262012203F8372057B92AE0013B2363FFF701FF236B013323630028E6D020E00F2306EBC302126C95420CD213F1FF33F7D208E094682CB16268954214D978
:40250000A268002AF7D101330F2B03D806EBC302526CF6E72846FFF73DFE0028E1D03846FFF7B4FD0020BDE8F883D4F80490336CC5EB09020C339A4238BF4D462046FFF76D
:40254000B7FD736B611998444D454FF00003C8F8044027606560A360246141F8045C03DAC5EB0900FFF7C4FD3846BDE8F88300BF10B4FF1F08B1FFF785BF704773B5064684
:40258000FFF7F8FF054660B1FFF764FE064B02AC44F8040D1B683246002198472046FFF767FE284602B070BD6081FF1F4D4B2DE9F04F1A688BB0D169CC69A389984208DB24
:4025C000E589854205D32568C31A06954FF0FF3613E0A368002B7CD01D88A84279DB5E88864276D35B68401B666880B203EB8005069633F92030B5F90260581C099368D005
:4026000091F818B0A17CB2F92A900BFB01F34846B2F92270B2F92480079394F810A001F00BFC079B089018462E4D099B2968CA69896B0591069900FB03100490A37C4146F9
:40264000039301230293D37E38460193937E524600935B4601F066FD731C1AD049F0020001F0EAFB2A680699D369926B38460592079A02FB06160496A27C414603920122BD
:402680000292DA7E01929B7E524600935B4601F049FD2B68DB695A7E1B7E9A4215D9B9F1020F12D089F0040001F0C6FB0D4B1B68D869437E827E017EC07E434400FB018103
:4026C0000AFB0272384601F015FC9DF8200001F0B3FB044B617C1A68538C0B4453840BB0BDE8F08F3C81FF1F044B1B68DB69DB6909B11A7C0A60587C704700BF3C81FF1FE7
:4027000002230B807047C3699A89914202DBDA898A420FD2986880B1038899420CD342888A4209D3C91A436833F82100C043C0F3C03070470120704700207047C3B2CAB264
:402740009A1A92B210B514B2002CBCBF524214B204FB04F2C0F30723C1F307241B1B9BB21CB2090C002CC1EB1041B8BF5B4289B208B2B8BF1CB204FB04230028BCBF4942F3
:4027800008B280B200FB003010BD10B538B309B30AB3B2F90040B1F90030A342A8BF2346B2F902400380B1F90230A342A8BF2346B2F904404380B1F90430B2F90620A3424B
:4027C000B8BF23468380B1F906309342B8BF1346C38010BD11460B6803604B68436010BD68B1038889B20B440380838892B219444388818013444380C3881A44C28070472C
:40280000024B1B6858849984002070473C81FF1FB0F90220B1F906309A4214DCB1F90220B0F906309A420EDCB0F90020B1F904309A4208DCB0F90400B1F900308342CCBFF7
:402840000020012070470020704708B501F0A6FF02F00CF8BDE8084002F05CBD01F01EBE01F022BE094B10B41880094B0A461980084B1B68597C084B53F82130D9680C6A6C
:4028800001461846234610BC184700BFF8B4FF1FE8B4FF1F3C81FF1F20B5FF1F70B50B4D00240B4E45F8044B3368702221462846984733680422214606489847064B1D6044
:4028C000064B1C70064B1C6070BD00BFBCB1FF1F6081FF1F20B5FF1F3C81FF1F08B5FF1FE4B4FF1F014BD860704700BF3C81FF1F2DE9F3410446042016461F460D4601F0C7
:402900009BFA124B80461B686846DA6C1B6D14441D4416441F44ADF80040ADF80460ADF80250ADF8067002F075FC28B9404601F083FA02B0BDE8F0813B463246294620469C
:4029400001F0D8FA02F0A4FBEFE700BF3C81FF1F002110B50846FFF753FFBDE8104043F6FF7302491A460846FFF7C2BF01C0FFFF024BDA6FD8674260704700BFBCB1FF1FD0
:4029800010B5094C23686BB901232360FDF73CFCFDF74CFC2046BDE81040044B40F8803FFFF7E6BF10BD00BFBCB1FF1F9D28000070B5FFF7E5FF2F4B2E222F4C2F4D1A70DD
:4029C000FDF71EFC2E4B04F10C0123672B681A1DDA6303F10802A2615A7C9B631B64294B53F82200C3681B6B9847274B6366EB6823622B680833A36101232377E37702F009
:402A000083FD032384F86830204BE064606F6363A36301F043FDA86801F046FD1C4A1D4B1A6001F09FFC054601F04EFE064601F051FE06B140B901F03BFE064601F03BFEE5
:402A40000146304601F03AFE00210846FFF70AFF02F0B2FCA36F43B1A36F33B11B6803B19847A36F5B68A367F6E70B4B01221A70284670BDD9B4FF1FBCB1FF1F3C81FF1FE5
:402A80006876000020B5FF1F60760000785634FF7C76000018B5FF1F00B5FF1F002809DC054B53F8200020B1C3681B681BB10068F9E770470020704720B5FF1FFFF7B6BB7B
:402AC000F8B51C1E06460D46174601DD0020F8BD1C20FFF785FC0028F8D00DB1056109E0084B53F8241029B10B680BB11946FBE70B6903610023836084618782C66003601F
:402B00004360F8BD20B5FF1F81690A4A52F821309842036804D142F821300BB100225A60426802B11360036803B15A60002303604360704720B5FF1F30B508B9012030BD04
:402B40008469002CFADC1B4B1A789442A4BF01221A70194A52F8243015461BB942F82400184630BD5A680AB11346FBE7C2681268D9680968914203DD1B68002BF8D1DDE7B3
:402B800009D1818A012906D1196821B10B46C96809688A42F8DD5A6812B11060426001E045F824005860984208BF00230360002030BD00BFD1B4FF1F20B5FF1F38B51D46DE
:402BC000FFF77EFF044648B1FFF7B6FFE3681B6823B9034B16351B6843F82540204638BD3C81FF1FF7B50F4C2568EC6C2D6D26186F1814441D446846ADF80060ADF8044038
:402C0000ADF80270ADF8065002F004FB40B12B4622463946304601F06DF902F039FAF5E703B0F0BD3C81FF1F024B1A6802B9186000F00CB84CB2FF1F007870470120704766
:402C4000012070470170012070470000024B1B6803B11847704700BFACB2FF1F074AC0F34513D15C064AC0F3C423D35C00F01F00105C1B0403EB0123184470472C7A000057
:402C80006C7A0000074AC0F30723D15C064AC0F30743D35CC0B2105CDB0203EB41131844704700BF2C7700002C7800004FF6FF7070470000F0B5DFF834E00B4E50F8045B46
:402CC000013AC5F307241EF80470C5F30744345DEDB24FEAC424755D04EB47142C440C801944EBD1F0BD00BF2C7800002C770000F0B5541E03FB040002F18044013C0D4E8C
:402D00000D4F01EB84010588013A4FEAD52416F804E005F01F04345DC5F345157D5D04EB0E4404EB052441F80449A0EB0300EAD1F0BD00BF6C7A00002C7A00001046704718
:402D40004068801A01387047084670470068401A0138704710B48468D4F8F840A44610BC60478368D3F8F4301847F7B5164604460D468768FFF7F5FF0190019ABB6A2946E2
:402D8000534020463246FFF7E5FF03B0F0BD13B584680092D4F8F040A04702B010BD13B584680093D4F8F0400B46A04702B010BD10B48468D4F8F040A44610BC604730B4D9
:402DC0008468D4F8EC40A44630BC60477047000073B5079E84680C4D76B1286888B906980090D4F8A8602046B047D4F8A8302B60064BC4F8A83004E02B6813B1C4F8A8306F
:402E00002E6002B070BD00BFB4B2FF1FCD2D0000026CD0F8DC3090691847026CD0F8E030906918472DE9F34791468A4698460A9C85680B9F00942846D5F8A860B047394651
:402E4000C9EB0404CAEB0806621C286C06FB0222D5F8E430806902B0BDE8F04718472DE9F34791468A4698460A9C85680B9F00942846D5F8A860B0473946C9EB0404CAEB15
:402E80000806621C286C06FB0222D5F8E830806902B0BDE8F04718470139172928D8DFE801F01427272727272727270E101219290C272727272727231E250F4870470F4861
:402EC00070470F4870470F48704703689B68D3F80401704703689B68D3F8FC00704703689B68D3F80001704707487047074870470020704706487047CB320000B73200005F
:402F0000A332000049320000AD310000D12D0000E1320000013980680D2923D8DFE801F0090B0D0F2222221125070713181D01207047006870474068704780687047C06808
:402F40007047806B704788B1406B00F00100704760B1406BC0F34000704738B1406BC0F3800070474FF0FF30704700207047836801290CBF586C00207047826800230B8079
:402F80004B801368013B8B805368013BCB807047F0B5104C91B06D46264607460FCE0FC596E80F00203485E80F000FCC08AD0FC594E80F0085E80F007B6B10AA02EB830351
:402FC00053F8402C53F8203CC7F80821C7F80C3111B0F0BDA476000007B580698DE806006A460321FDF76CF903B05DF804FB08467047084670470846704710467047104641
:403000007047104670474068801A013870470068401A013870470068401A013870474068801A013870474068801A013870470068401A013870472DE9F34184689846E38C9D
:403040000E469B0717462ED5D4F80831204698470546D4F80C313A46314620469847A36922699D42D4BF002301239542B8BF43F00103626906469042B8BF43F0010313B9E8
:40308000E36998420ADD62682368013A00920022D4F8A870013B11462046B847D4F8AC303246294601E0D4F8AC302046984741462046D4F8A43002B0BDE8F0411847F7B566
:4030C00084680E46E38C17469B0743D5D4F8083120469847D4F80C31314605463A4620469847D4F8983006461BB10022012120469847A36922699D42D4BF002301239542D4
:40310000B8BF43F0010362699642B8BF43F0010313B9E3699E420ADD62682368013A00920022D4F8A870013B11462046B8472946D4F8AC30324620469847D4F8A0302046BB
:403140009847D4F8983005467BB101220021204698470AE0D4F8AC30204698472046D4F8A03003B0BDE8F0401847284603B0F0BD38B5856804469DB94FF4BE70FFF730F944
:40318000084B4FF4BE721B68A06029469847A3680222DA8401221A62034A1C64C3F8102138BD00BF6081FF1F912F000070B506460D461446FFF7DCFFB368002B3BD0262D8D
:4031C00002D0272D16D070BD9A6B102A02D0122A08D070BD184AC3F8DC40C3F8B820C3F8B42070BD154AC3F8E040C3F8BC20C3F8C02070BD9A6B102A02D0122A0ED070BDCB
:403200003CB10F4AC3F8E440C3F8CC20C3F8C82070BDC3F8CC40C3F8C84070BD3CB1094AC3F8E840C3F8D020C3F8D42070BDC3F8D040C3F8D44070BD112E00001B2E000042
:40324000252E00005F2E000070B50646FFF790FF4FF4FA70B568FFF7C3F8A866B0FA80F4A86B2B680730C0105843FFF7B9F8002200284FF00101E866B0694FEA541408BF88
:403280000124FDF71DF8D5F810310443284698472846D5F8B0309847002CD4BF0020012070BD70B506460D461446FFF761FFB3681D605C6070BD70B506460D461446FFF70E
:4032C00057FFB3689D60DC6070BD10B50446FFF74FFFA06900220621BDE81040FCF7F0BF10B50446FFF744FFA06900220521BDE81040FCF7E5BF38B50C460546FFF738FFDF
:403300002268AB68DA6262681A63A2685A63520707D51A68596883E806009A68D968DA609960A2899A84226912B122EAE2721A6238BD2DE9F041044688461E461746FFF7C9
:4033400017FFA5686822414605F58A7003F09DFC2046B8472046B04723699B689847A862BDE8F0810B0A80F8713080F87210D0F820310221713018472DE9F04115460446F9
:40338000806E0E460021A5B1034636F8022B0131170AFA2903F8027B427007D1D4F820314FF4FA71A06E9847A36E0021013D1846E9E731B1D4F82031A06E4900BDE8F041B6
:4033C0001847BDE8F08108B5D0F8B830984708BD89B2FFF7C7BF00002DE9F04F3E4E82468568306885B0007C884610F0010F14469946A3EB01003DD043000393471C0E9B19
:403400009C4266DCD5F8CCB0EE6EBBF1000F01D1C34607E08DE850004B46224641465046D8470DE0CB450ADC5946D5F8F4302246504698470BF1010B26F8020BF2E7EE6E98
:40344000039AB31E1644B34205D0A96A33F8022F4A401A80F7E7009422464B4641462846D5F8A860B0473A46E96E2846FFF784FF0134C4E70E9FBC1A671C00FB07770E9838
:403480000090D5F8A8402846A0473368AE6EDB6B1C680123C4F3072906EB030AE4B2C7B1B846F92F28BF4FF0F9084FEA48013BB9D5F8203150469847C8EB07070023EEE7CB
:4034C000334672189342F3D083F8019003F8024FF8E705B0BDE8F08F3C81FF1F2DE9F04F8FB00393836805900993199B0691082B08920CD8199A4FF48B73D340DB0706D540
:40350000984B1B681B7C03F00303022B10D0069B1C9A18989918089A039B0244013A0092099ACB18D2F8A840013B089A0998A047039B1C9A013B0D93069B089F1344049379
:40354000049A0D9B13440C93089B189AFB1A9A4240F35382199B013B0F2B00F24882DFE813F01000C10046024801460246024602D801460246024602460246024602460206
:403580004102059B9C681D9B5B680B93754B1B681B7C03F00303022B22D0032B76D0012B74D01D9B039E1C9DDDF86CB0B3F80090BDF82CA04FF080089BF8002048FA05F3C2
:4035C0001A4214BF5146494601352046FFF7CAFE082D04BF0BF1010B0025013EECD106E21B9B00250A932B46DDF810B0D4F86CA0DDF87080CDF81CB00A9A92F80090802207
:4036000042FA08F219EA02090DD01BB9D4F86CA0DDF81CB0BDF82C300135AAF800300AF1020A012313E0012B10D1079B0097013B3A4659462046D4F8A860B0472A46E16E54
:403640002046FFF799FE4D464B4600E04B46079A08F101080132B8F1080F079208BF0A9A039904BF01320A92049A08BF4FF000080A4407999142BFD1002D00F0B881009710
:40368000D4F8A8600C9B3A465946A5E1039B049A1C9DDDF86C80079303EB020A4FF0800B079B98F80020C3EB0A094BFA05F31A420DD0D4F8F4303A46494605989847A36AC5
:4036C0003A46434049460598D4F8F860B0470135079B082D04BF08F101080025013B0793DED184E1059B9C681D9B002B00F07F811B9B93F800B01B4B1B681B7C13F00303AE
:403700000FD0022B40F07381049B00260A931B9BD4F86CA0DDF870900B93DDF81080324645E01C9D039EDDF86C904FF0C008C5F103035A00C2F1060348FA03F303EA0B03BD
:40374000D3401D9A013532F823102046FFF70AFE042D02BF99F801B0002509F10109013EE5D144E13C81FF1F1AB9D4F86CA0CDF82880079A1D9B013653F822300AF1020AEA
:403780002AF8023C012209F10109B9F1040F08F1010806D10B9B4FF0000993F801B001330B93049B03990B44984500F0A680C9F103056D00C5F10603C02141FA03F303EA86
:4037C0000B03EB400793CFD1012A10D1009708F1FF333A460A992046D4F8A850A8473246E16E2046FFF7C8FD079E3246CBE7079AC9E7059B9C681D9B002B00F0F8801B9B9F
:4038000093F800B07E4B1B681B7C13F003030FD0022B40F0EC80049B00260A931B9BD4F86CA0DDF870900B93DDF81080324642E01C9D039EDDF86C904FF0F008C5F101033B
:403840009A00C2F1040348FA03F303EA0B03D3401D9A013532F823102046FFF783FD022D02BF99F801B0002509F10109013EE5D1BDE01AB9D4F86CA0CDF82880079A1D9B2A
:40388000013653F822300AF1020A2AF8023C012209F10109B9F1020F08F1010806D10B9B4FF0000993F801B001330B93039B04990B44984521D0C9F10105AD00C5F1040394
:4038C000F02141FA03F303EA0B03EB400793D0D1012A10D1009708F1FF333A460A992046D4F8A850A8473246E16E2046FFF744FD079E3246CCE7079ACAE7002E77D0009789
:403900003A46D4F8A8500C9B0A992046A847324665E0059B9C681D9B002B68D0384B1B681B7C13F003030FD0022B60D1DDF818A0039A00255244D4F86C80DDF86CB0CDF8F2
:403940001CA02B460A9224E01B9D039B1B9A5B1B1344002B4BDD15F8013B1D9A204632F82310FFF7FFFCF0E71BB9D4F86C80DDF81CA01D9B013553F8293008F1020828F8F2
:40398000023C0123079A0132079207990A9A914219D01BF8019BB9F1000FE5D1012B10D1079B0097013B3A4651462046D4F8A860B0472A46E16E2046FFF7DEFC4D464B4637
:4039C000E0E74B46DEE70D9B069A13447DB13A4651460097D4F8A8602046B0472A46E16E204602E0039A1B990998FFF7C5FC1B9B1A9A013713441B93A6E50FB0BDE8F08F39
:403A00003C81FF1F10B50446FFF7B2FBA468104B0821C4F8EC300F4B2046C4F8F0300E4BC4F8F4300D4BC4F8F8300D4BC4F8A0300C4BC4F8A430D4F8CC30C4F80431D4F830
:403A4000943098471023A363074B636410BD00BFDD340000D9330000BF30000037300000C7330000D1330000B47A00002DE9F04104460E461546D0F88C302A219847E16AED
:403A8000D4F8903031442046C1F30F219847E16AB7B23944D4F890302046C9B29847E16AD4F8903031442046C1F30F219847E16AD4F8903039442046C9B29847D4F88C304E
:403AC00020462B219847216BD4F8903029442046C1F30F219847216BAEB23144D4F890302046C9B29847216BD4F8903029442046C1F30F219847216BD4F890303144204639
:403B0000C9B29847D4F88C302046BDE8F0412C2118472DE9F041044688461F461646D0F88C302A21069D9847E16AD4F8903041442046C1F30F219847E16AD4F89030414469
:403B40002046C9B29847E16AD4F8903039442046C1F30F219847E16AD4F8903039442046C9B29847D4F88C3020462B219847216BD4F8903031442046C1F30F219847216B99
:403B8000D4F8903031442046C9B29847216BD4F8903029442046C1F30F219847216BD4F8903029442046C9B29847D4F88C302046BDE8F0412C21184713B504466B460D4AC7
:403BC0001068516803C3D4F88C302046362198472046636B02AAA18C134413F8083C21F0E0011943D4F8903089B202B0BDE81040184700BF1877000013B50446D0F814316F
:403C00002E209847216AD4F83031684603319847236A0DEB03021DF803305078DB088008DB0243EA4013907843EAD00002B010BD1FB50446D0F834312E209847216AD4F829
:403C40005031684602319847226A0DEB42035B88C3F3C4005B1103F4FC6303433DF81200000200F47840184304B010BD70B505460C46D0F81431080A9847D5F81431E0B2A0
:403C8000BDE870401847D0F8343108461847D0F81831C8B21847D0F83831084618470000082902D0102905D07047064BC0F88C30054B03E0054BC0F88C30054BC0F8903062
:403CC000704700BF6D3C00008F3C0000873C0000973C0000F0B585B00A9F8568BC1A581A0097013400FB0444D5F8A87028460B9EB847D5F814312E209847D5F83031296A82
:403D000002A89847D5F83031032102A898479DF80930013C4FEA93029DF808304FEAD3034FEAC32343EA42139DF80A2043EAD20326F8023BE6D105B0F0BDF0B587B00C9F0D
:403D40008568BC1A581A0097013400FB0444D5F8A87028460D9EB847D5F834312E209847D5F85031296A02A89847D5F85031022102A89847BDF80A30013CC3F3C4024FEA5E
:403D8000631303F4FC6343EA0203BDF808204FEA022222F4FF6243EA020326F8023BE4D107B0F0BD10B50446FFF7E2F9A368114A0021C3F8AC20104AC3F8BC10C3F8A8205C
:403DC0000E4AC3F8D010C3F8B0200D4AC3F8B8200C4A10685268C3F8B400C3F8C820DA8C094822F00302DA84084AC3F8CC00C3F8942010BD6D3A0000133B0000B93B000097
:403E0000F93B00004C81FF1FD53C0000A13C000070B5084B1B681A7C82EA0001490705D59C6BD96B25680E6826600D601874104670BD00BF3C81FF1F014B1B689B68184732
:403E40005481FF1F0A46154B30B41B680446B3F90A10914220DCB3F90E108A421CDCB3F90810814218DCB3F90C10884214DC197C587C11F0010F0A4951F8200004D0C36899
:403E8000214630BCDB691847C168DB6B8D691B682146AC4630BC604730BC70473C81FF1F20B5FF1F114B30B41C680D46B4F90A308B4219DCB4F90E30994215DCB4F908108B
:403EC000B4F90C308142B8BF01469342A8BF1346994209DC607C064A52F82000C26894682A46A44630BC604730BC70473C81FF1F20B5FF1F73B5134C2468B4F90850B4F924
:403F00000C608542B8BF05469642A8BF1646AE4215DBB4F90A208A42B8BF0A46B4F90E108B42A8BF0B469A4209DC607C064951F82000C16800930C6933462946A04702B050
:403F400070BD00BF3C81FF1F20B5FF1F2DE9F04F8FB0189DDFF8C8E10295199DDEF800E008951B9D079003950C4617460193DDF868A01C9EDDF874B01E9DBEF1000F02D019
:403F8000DEF8004054E0029B089A1343012B54D1614B1868B0F90A20531A002B0ADD0199C3EB010EBEF1000F40F3B280039901FB036602E00A46DDF804E0019B1C44B0F948
:403FC0000E30013CE41A002C05DDC4EB0E0EBEF1000F40F39D80079BB0F90C103B44013B5B1A002BC8BFFF1A079B591BB0F90830994209DA5B1A1D44FF1A23F0070306EB4D
:40400000E506194405F00705002F40F38180407C424B039C53F82000C368CDF874B01C951B961A94CDF864A0CDF860E05C683B46A4460FB0BDE8F04F60477546CAF1080395
:404040000B93029BDFF8D090013BCDF814E00D93059B019A93425BDA089BE3180993013B0A93D9F800300A99B3F90A208A4248DCB3F90E309C4244DC079B4FF0000806960A
:404080000093CDF81080049BBB423ADAB8F1000F05D1069B4FF008081D78013306930B9BCAEB080845FA03F313F0FF0105FA0AF5EDB204D1D9F80020127C920719D4D9F89D
:4040C0000020D26B10680C90BBF1000F02D05BF8213000E0DBB2136000990D9A0A9B0A4400982146FFF706FFD9F800300C9ADB6B1A60049B029A01330493009B134400931F
:40410000C1E7059B099C01330593039B1E449FE70FB0BDE8F08F00BF3C81FF1F20B5FF1FDCB4FF1F2DE9F04F8FB0189CDFF814E20294199C1D9E0894DEF800E01B9C0546B3
:4041400003940091904601931A9F1C9C0496BEF1000F02D0DEF800407AE0029B089A1343012B7AD1754B01991868009BB0F90A20D31A002B07DDC91A002940F3DB80039E17
:4041800006FB034400E0009A9DE848001E44B0F90E30013EF61A002E03DD891B002940F3C98005EB0803B0F90C60013B9B1BB0F90860002BC8BFC3EB0808B54231DA731B6E
:4041C000082FC3EB080827D00DDC022F14D0042F1AD0012F26D123F0070604EBE304354403F007031EE0182F18D0202F16D0102F18D104EB430413E023F0030604EBA304C0
:40420000354403F003030DE023F0010604EB6304354403F0010305E01C4401E004EB830435460023B8F1000F40F38480467C444850F82600049ED0F80CE01C93039B18910E
:404240001A93294643461D961B941997DEF80440A4460FB0BDE8F04F6047F346C7F108030B93029BDFF8D4A0013BCDF818E00D93069B019A93425DDA009A089B13440993A6
:40428000013B0A93DAF800300A99B3F90A208A4248DCB3F90E30009A9A4243DC2E464FF000090794CDF81490059B43453ADAB9F1000F06D1079B4FF0080993F800B001334E
:4042C00007930B9B0BFA07F24BFA03F313F0FF015FFA82FBC7EB090904D1DAF80020127C920717D4DAF80020D26B10680C90049810B150F8213000E0DBB213600D9A0A9B6A
:40430000324400993046FFF7F5FDDAF800300C9ADB6B1A60059B029A01330593334613441E46C1E7069B01330693039B1C44099B00939DE70FB0BDE8F08F00BF3C81FF1F20
:4043400020B5FF1FDCB4FF1F044B1968044B4A7C083153F82200C3681B6B18473C81FF1F20B5FF1F07B5FFF7EFFF00F0B1F8002839D1FEF793FB019038B900F0FFF81B4B76
:404380001A681B4B9A420CD12AE0C3680C215B6A01A89847034628B3019898470028ECD021E00020FEF77AFB0190C8B1002001F08DF90420FFF740FD43F6FF7300211A467E
:4043C0000846FFF797FD0020FFF736FD019B0E21DB6801A85B6A9847034608B101989847002000E0012003B05DF804FB30B2FF1F785634FF044B1B685A7C044B53F822300A
:404400001B691B68184700BF3C81FF1F20B5FF1F044B1B685A7C044B53F822301B695B68184700BF3C81FF1F20B5FF1F044B1B681A7C52074CBF9B6BDB6B1860704700BFBC
:404440003C81FF1F08B5064B1B68196B814206D01863FFF7CFFFBDE80840FFF7E7BF08BD3C81FF1F044B1B681A7C52074CBFDB6B9B6B1860704700BF3C81FF1F08B5064B5C
:404480001B68596B814206D05863FFF7B3FFBDE80840FFF7E7BF08BD3C81FF1F014B1B685B6818475481FF1F014B1B681B6818475481FF1F10B5044C2068FDF7B7FE034A75
:4044C00000232360136010BD2CB5FF1FD0B2FF1F38B50A4D2C6864B9094B18688000FDF77FFF286038B10748074B40F8043FFEF73FFA002038BD012038BD00BF2CB5FF1FD8
:404500005881FF1FD0B2FF1FB54400002DE9F843044618B387681FB3144D286820B32268B2F5807F1FDC124B00261B689A42A8BF1A469046464509DA57F82600D5F8009016
:40454000FFF758FF49F826000136F3E7094B1B680BB1204698472868BDE8F883BDE8F8833846BDE8F8830020BDE8F8832CB5FF1F5881FF1FD0B2FF1FFFF7C8BF2DE9F74F81
:4045800000F003F91C4E8046B146DFF874A0002444452DDA2046FEF781FA38B33368204693F811B05C7400F047F8082804DDD9F8003083F811B019E05AF824301A690F4B72
:4045C0009A42F4D0204600F03AF8034600259D42EDDAEFB238460193FFF71AFF39460246204600F0FBF80135019BF0E70134CFE703B0BDE8F08F00BF3C81FF1F9C7A000092
:4046000020B5FF1F10B50C46FEF748FA28B1C3682146BDE810409B6A184710BD002801DCFFF7F0BF00207047014608B50020FFF7E9FF20EAE07008BD0821FFF7EFBF09210F
:40464000FFF7ECBF024B1B68587CFFF7F8BF00BF3C81FF1F034B082153F82000C3689B6A184700BF20B5FF1F10B5FEF717FA28B1BDE81040C3680221DB6A184710BD000033
:40468000024B1B68587CFFF7EFBF00BF3C81FF1F024B53F820301B695868704720B5FF1F024B53F820301B691868704720B5FF1F0120FFF7B9BF0220FFF7B6BF014B83E8D9
:4046C00003007047DCB2FF1F014B1868704700BFDCB2FF1F014B5868704700BFDCB2FF1F00283BD030F0010329D030F0030328D030F0070327D030F00F0326D030F01F033F
:4047000025D030F0FF0324D020F4FF7323F001030BB320F47F6323F00F03E3B120F4FF4323F07F03BBB1030C1B04A3B1830C9B049BB110F07F4F0CBF182020207047012028
:4047400070470220704703207047042070470520704708207047102070471220704708B5FFF7BEFF01280FD0831E062B09D9A0F10903072B07D911380F288CBF0020202063
:4047800008BD082008BD102008BD08B50020FEF785F9003018BF012008BD00000D4B10B51C461A68517C0C4A52F8210040B1C36813B11B68042B01D00068F7E7FEF7A4F94B
:4047C00023680022DA6503F108025A61BDE81040FFF7BABD3C81FF1F20B5FF1F37B50C461546FEF75BF9019008B901200CE0C36810215B6A01A8984703460028F5D001982B
:404800002A4621469847002003B030BD37B50C461546FEF743F9019008B901200CE0C3680B215B6A01A8984703460028F5D001982A4621469847002003B030BD37B50C46B2
:404840001546FEF72BF9019008B901200CE0C3680A215B6A01A8984703460028F5D001982A4621469847002003B030BD10B5074C2368186BFFF7BEFDFFF7D8FD2368586B8D
:40488000FFF7B8FDBDE81040FFF7ECBD3C81FF1F144B70B500241C60134B14481C60144B144D1C60144B04701C60144B44601C60134B84601C60134B21461C6018222B68AE
:4048C0000C309847104B21461C60104B08221C600F482B6898472B682146BDE8704008220C4818475CB5FF1F44B5FF1FE4B2FF1F64B5FF1F6081FF1F6CB5FF1F34B5FF1FF3
:4049000054B5FF1F60B5FF1F40B5FF1F38B5FF1F78B5FF1F70B5FF1FF0B507460C46164685B002AD002F48D03846FDF793FC876A0146BB0701903AD526B13246284600F05E
:4049400067FE02E003C885E8030029462046FDF75FFF60B317F0010F019B1CD13EB1B3F90220B6F902309342B8BF134601E0B3F90230B4F902209342B4F9062005DDBDF9CA
:404980000A309A4213DB013B03E0BDF90E309A420DDDE3800BE0DF694FB138462A462146FFF7BAFF3846FDF74BFC076AF4E7019B01A81F6AFDF75CFCB4E705B0F0BD2DE94E
:4049C000FF4106460F469046002502AC002E35D03046FDF73FFC866A0146B207019027D5B8F1000F04D04246204600F011FE02E003C884E8030021463846FDF709FFB8B1F9
:404A0000F30705D4BDF80C30012501333B800FE0019BDE6966B1224639463046FFF7CFFF0028304618BF0125FDF70AFC066AF1E7019B01A81E6AFDF71BFCC7E7284604B00E
:404A4000BDE8F081F0B505460E46174685B002AC7DB32846FDF7FEFB856A0146AA07019021D527B13A46204600F0D2FD02E003C884E8030021463046FDF7CAFE98B1EB0736
:404A800004D4BDF80830013BB3800CE0019BDD694DB1284622463146FFF7D4FF2846FDF7CFFB056AF4E7019B01A81D6AFDF7E0FBCEE705B0F0BD000073B506460D46284683
:404AC000FDF7C8FB836A014613F00204019004D101A8FDF7CDFB204612E0304600F07BFD019B01A89C693CB9FDF7C2FB054B1868431B5842584103E0FDF7BAFB2546DEE7B4
:404B000002B070BD38B5FF1F2DE9FF4106460C4600294CD0FDF79EFB00238461019003622046FDF797FBC76904AC44F8080D2FB9C66101A8FDF79CFB204636E0019B3846D1
:404B40009D6AFDF787FB0DF1100805F0080548F8040D75B9836A1A070BD5019B01A81F62029BDE61FDF784FB2046FDF781FB40461BE02046FDF77CFB4046FDF779FB38468A
:404B8000FDF75EFB0390039B1C6A0CB91E620BE02046FDF755FB002DF4D1836A1B07F1D5039B1E62019B1C6201A8FDF761FB04B0BDE8F08103460846B3F90220B3F9001034
:404BC000FDF70EBE114B30B51C6885B0626C0546BAB11068516802AB03C30D4B186800B9A06CFDF737FB04AC02A944F80C0DFFF7E1FF2046FDF73CFB02A8294600F0EBFC09
:404C000002A801F023FF05B030BD00BF3C81FF1F34B5FF1F1FB50E4B1B6893F854200AB10C4811E0986CFDF715FB02AC019003C884E8030001A8FDF71BFB074B196811B1FC
:404C40002046FFF739FF2046FFF7BCFF04B010BD3C81FF1FF8B2FF1F34B5FF1F13B5044600B3FDF7F7FA836A01909B0717D5406A40B10D4B1B689C4204D000F0AFFD019B48
:404C800000225A62204600F045FC04463CB12046FFF7E4FF2046FDF7D3FA046AF6E701A8FDF7E6FA02B010BD68B5FF1FB0F90020B0F904309A4208DCB0F90230B0F9060070
:404CC0008342CCBF0020012070470020704700007FB50D4604461646FDF7B2FA816A01908B0733D52846FFF7E1FF78B340F601030B40012B2AD02046FDF7ACFA02AC0246A2
:404D000001902946204600F083FC2046FFF7CEFFC8B144F22001019B9A6A03F10805114029B1224629462846FDF72FFD0BE0324394E8030085E803009A62054A138801330B
:404D40001380FDF783FF01A8FDF792FA04B070BD48B5FF1F2022FFF7BBBFF0B50F4685B01546064648B3FDF775FA836A04AC9B07024644F80C0D03D42046FDF779FA1CE0A3
:404D8000394602A800F044FC0028F5D02046FDF76FFA2A4602A93046FFF79AFF304600F0B9FB04464CB120462A4602A9FFF7D5FF2046FDF745FA046AF4E705B0F0BD2DE9C4
:404DC000FF41804617461D460C4681B30846FDF741FA866A0246B307019025D5414602A800F016FC00B340F601033340012B07D101992B460A6A02A88969FFF7E0FF04E002
:404E00002A4602A92046FFF763FF019BDC695CB1BC4209D020462A4602A9FFF79EFF2046FDF70EFA046AF2E701A8FDF721FA04B0BDE8F0812023FFF7C2BF1FB504AB43F81D
:404E4000101D1946019000F027FB05B05DF804FB00230B8002884B8083889B1A8B804288C3889B1ACB807047F0B50F4687B00546002833D0FDF7EEF9866A0190B2072AD5A5
:404E800003C804ACF30384E8030002D52846FFF7E5FE5FB13868796802AB03C302A90198FFF788FE02A9204600F095FB29462046FFF702FE78B140F601033340012B06D1FB
:404EC000019B20461A6A9969FFF7B4FF03E021462846FFF73FFF01A8FDF7CAF907B0F0BD0021FFF7C1BF00000B4B70B51A680546966C1C4608B9094B1D689564FFF724FAE7
:404F00002846FDF79DF92368B0F90020DA64B0F9022030461A6570BD3C81FF1F4CB5FF1F2DE9F74FDDF830A098464C4B05460E461746D3F80090BAF1000F24D1484B1B884E
:404F400033B3484B1B685A1C012A21D99A465046FDF780F9B0F90010B0F9022001900D4416441FB9B0F904305F1A0137B8F1000F05D1B0F90630C2EB030808F1010801A8C1
:404F8000FDF776F904E0BAF1FF3FE0D14FF0000A0F982C30FDF7F2FA0446002859D0304A0D9B0DF1080B49EA0309138801331380FDF750F90E9B826A03612B4B4BF8080D71
:404FC00009EA0303058046803D4446441343013D013E83628580C6805846FDF749F9234B186848B1FDF72CF905462046FDF728F96B6943616C6100E01C6051462046FFF731
:4050000083FD19F0200F02D02046FFF76DFF19F0010F1FBF164A13680133136019F0400F02D0204600F086FA19F0020F0DD02046FDF710F9836A009043F002038362584613
:40504000FDF716F92046FFF74BFF01212046FFF7F4FE204603B0BDE8F08F00BF54B5FF1F30B5FF1F38B5FF1F9F3F3F004CB5FF1F6CB5FF1F1FB5089C0394079C0294069C81
:40508000019400240094FFF74BFF04B010BD00002DE9FF415D4F3B6893F85400002800F0B1805B4A136A1446012B03DD013B13620020A7E0D36902AD013302F1140696E88B
:4050C0000300D36185E8030023B99389ADF80830D38910E0138BD28A0133ADF80A20B4F910201BB29A42ADF8083006DAA389ADF80830638B0133ADF80A30BDF90A20B4F911
:405100001230DFF80C819A4204DD236A0020013B236277E03B68986CFDF79CF8BDF90820B8F90C3001909A421CD1B8F81230ADF80E30B8F81030ADF80C30344B1B689A6C45
:405140005AB11046FDF77CF8804600222946006AFFF7E2FBD8F81820F2E7019B2946D869FFF7DAFBBDF80830ADF80C303B689A6C6AB11046FDF764F8002280462946006AE1
:40518000FFF71DFC0028EDD1D8F81820F0E7019B2946D869FFF713FC0028E3D1B4F91030BDF90820ADF80C309A4207DD95E8030086E8030001A8FDF75BF897E73B689A6C7A
:4051C00052B11046FDF73CF8074600222946006AFFF738FCBA69F3E704AF57F80C3D2946D869FFF72FFC3846FDF742F844F62063E2699A4289DC95E8030086E80300FFF7C7
:4052000009FD012004B0BDE8F08100BF3C81FF1FE4B2FF1F2DE9F041394E86B03268804692F8543013B9FFF7F5FC64E0354F3B6A3D460133012B3B625DDC906CFDF70AF8F2
:405240004FF0FF33FB61304B00901B7813B102AB083004E0836A13F002040CD002AB03C802AC83E80300B8F1000F0CD04146204600F0B1F907E03B6A6846013B3B62FCF7AF
:40528000F7FF204638E03368204F5A6CC2B1009B10685168019304AB03C33B6833B101A8FCF7E6FF3868FCF7D5FF019004A90198FFF780FC204604A900F08DF901A800E098
:4052C0006846FCF7D5FF396819B12046FFF7F4FB28B133682046996CFFF7EEFB18B92B6A013B2B6208E00A4B94E8030083E80300FFF7CEFE00E0012006B0BDE8F08100BF1E
:405300003C81FF1FE4B2FF1F51B5FF1F34B5FF1FF0B2FF1F024B01221B6883F8542070473C81FF1F10B5044623684068172B10D007DC0E2B0FD0142B14D1E16800F0D2F8F9
:4053400010E0222B0CD0282B0CD1BDE81040FFF7C7BDE06010BD2146BDE8104000F02DB9024B00E00023E36010BD00BF785634FF036810B50E2B044602D00F2B09D011E08D
:40538000C3685A68012A12D1BDE810401868FDF74BBC074B1868074B984203D0FDF75EFAFDF7D6FA2046BDE81040FFF7BBBF10BD58B5FF1F785634FF30B51D4C85B02178C1
:4053C000002932D11B4B084619601B4BA1601B681A4D59641A4B19801A4B198004230293194B01930223009343F6FF731A46FFF741FE164A164B28601A60FFF771FD15481A
:4054000000F068F8144800F065F82868FFF76CFDFFF780FF204601232370104B40F8243F05B0BDE83040FDF7A3BA05B030BD00BFE4B2FF1F4CB5FF1F3C81FF1F38B5FF1FC7
:4054400048B5FF1F30B5FF1F71530000785634FF58B5FF1F78B5FF1F70B5FF1F9148000008B500F05FF818B1FCF7EAFEC06908BD08BD38B50546FFF7F3FF044654B1AC42FF
:4054800007D02046FCF7DCFE036A9D4202D01C46F4E70024204638BD70B50D4C064623680D46132B12DCFCF7CBFE02696E6042B1236828460133236090472368013B23607B
:4054C00070BD2846BDE87040FFF72CBF70BD00BF14B3FF1F024B1A6802601860704700BF5CB5FF1F37B50D4658B151B1FCF7B2FE02AC44F8040D2946FFF7AAFC2046FCF770
:40550000B7FE03B030BD0000014B1868704700BF38B5FF1F08B5034610B1FCF791FEC369184608BD08B5034610B1FCF789FE8369184608BD2DE9F043044687B0002839D0E6
:40554000FCF788FE034604AD019003C885E8030001A81E6AD3F82890FCF78AFE2046FFF788FF074630B32046FFF7DCFF19F0020F804604D0014632462846FFF75BFC2046DF
:40558000FCF768FE01904046FCF764FE03903846FCF760FE039B019AD96906620290116201A8DC61FCF764FE03A8FCF761FE02A8FCF75EFE07B0BDE8F08338B505460C4652
:4055C00041B1FFF7AFFF28B1A5602146BDE83840FFF762BF38BDB1F90030B0F900209A42B8BF0380B0F90220B1F902309A42B8BF4380B0F90420B1F904309A42C8BF838060
:40560000B0F90620B1F906309A42C8BFC380704770B5B1F90030B2F9005006469D42B8BF1D46B1F902300580B2F90200B1F904408342B8BF0346B2F9040073808442A8BF0F
:405640000446B2F90600B1F90620B4808242A8BF0246A542F28004DC9342CCBF0020012070BD002070BD70B5840742BF02F1FF3201800230540824D0032C234601EB0145C2
:4056800002D800EB830317E0264600F11003043E032E43F8105C43F80C5C43F8085C43F8045C03F11003F2DC043CA3085E1C00EB0610A4EB8303E4E7984202D040F8045BE3
:4056C000FAE7D30748BF018070BD000070B5074C064623685D7C30B9FDF7E0F918B123685E74FDF7B2F8284670BD00BF3C81FF1F08B5FEF7A7FFB0F5807F10D07F2810D8F8
:405700003F2810D81F2810D80F2810D8072810D8032810D8012894BF002001200CE008200AE0072008E0062006E0052004E0042002E0032000E00220012303FA00F001384E
:4057400008BD38B50446FEF77DFF0546FEF798FFA54203D918B150F8240038BD002038BD2DE9F8438146FEF76DFF0746FEF788FF0646E0B1002056F820304B4517D001305E
:405780008742F8DC002425466FF07F4856F825104846FCF7D3FF804588BF2C4605F1010588BF8046AF42F1DC2046BDE8F883BDE8F88337B5044670B1FCF74CFD036802AD29
:4057C0001B6945F8040D9B689847FEF7C8FF04462846FCF74DFD204603B030BD37B50446D0B10E4B1B68DB6D984201D1FDF72DF82046FCF72FFD0190406908B100F018FD21
:4058000002AD55F8043D1868FDF758F92846FCF72FFD2046FCF74CFD03B030BD3C81FF1F0129024818BF0020704700BFB47A00001629024818BF0020704700BF0163000053
:40584000006810B1C3681B6A1847704737B580680D46FCF7FFFC0246B2F904301489B2F906102B801C44538902A80B44013B013C40F8042D6980AC80EB80FCF7F9FC03B0C2
:4058800030BD00000E4B73B51B680646D86D0D46FCF7E0FCB0F90610C468691AB0F9045002AB761B7600183604FB016543F8040D44191846FCF7DCFC204602B070BD00BF9C
:4058C0003C81FF1F08B508461146FFF7DBFF008808BD0000144BF7B51B680746D86D16460D46FCF7B7FC314600902846FFF7CAFF3B6904469B68984723885840009B208057
:40590000586960B1FCF7A6FC836802AC44F8040D1B683246294698472046FCF7A9FC6846FCF7A6FC03B0F0BD3C81FF1F73B51C46104B0D461B681646D86DFCF78BFC314608
:4059400000902846FFF79EFF009B0480586960B1FCF780FC836802AC44F8040D1B683246294698472046FCF783FC6846FCF780FC02B070BD3C81FF1F2DE9F7432C4C1E462C
:4059800023688046D86D0F461546FCF763FC00904069A14608B1FCF75DFC019029463846FFF770FFD9F8003004461A7CD2071FD5D8F810309B6898471FFA80F8019820B1AC
:4059C00083682A461B68394698472388013588EA03032380009BB542DB681C44EEDD6846FCF746FC019B03B301A8FCF741FC1CE0DB6B009AD3F80090019BD2F80C8063B124
:405A000001982A46836839461B6801359847AE42A4F800904444F3DAE1E7751B0135013DA4F800904444FAD1D9E703B0BDE8F0833C81FF1F2DE9F04F2A4F1D463B6814460B
:405A4000DA6B87B012688346D86D89460292FCF701FC214604904846FFF714FF049A0646D3685069C9EB0505039305F1010A88B1FCF7F0FB109B0DF118081B1B013348F880
:405A8000040D224600934946534600F0E5FB4046FCF7EEFBBDF808806D00109B9C421ADC3B681B7CDB070DD5DBF810309B689847B31E80B2711933F8022F42408B421A8092
:405AC000F9D104E0524641463046FFF7CCFD039B01341E44E1E704A8FCF7CAFB07B0BDE8F08F00BF3C81FF1F07B50092FFF7A2FF03B05DF804FB00002DE9F04F904D91B06F
:405B000002932B680A90D86D0E4605921D9CFCF7A1FB0E90406908B1FCF79CFB0F9010A850F8083DDB680793FCF7A2FB1E9B0F9806EB030B50B12B681B7C990706D11A9B9A
:405B4000059A00935946029B00F086FB05995846FFF798FE1B9B0546102B22D1029BDFF8E4914FEA430800261A9B9E4280F24A838CB185B10F9F424621462846D9F8003069
:405B8000984747B1BB68059AD3F804A03244029B59463846D0471C9B01361C44079B1D44E2E71B9B172B44DD6FF0030303FB0BF306936FF0010303FB0BF30493029B4FF097
:405BC00000085B4408931A9B984580F21B83059B03EB080934B91C9B08F101081C44079B1D44F0E7002DF6D00F9F37B1BB684A465E685946029B3846B0475E46069B04EB5B
:405C0000030A049BEB1803930A9B5AF826001B691B689847039B23F816002FB1BB684A461B68314638469847089B01369E42EBD1D1E71B9B082B40F08780029B059E5B007A
:405C400006936FF0010303FB0BF30393029BDFF8F0905B44013C0493059B1A9AF31A9A4204F1010140F3CE821F9B002B36D0D9F800301B7C13F0030309D0022B5AD1039B1D
:405C8000DDF83C80EB180893A2465F4621E0069B2246E9182B4612F8010F1F9F57F8200023F8020B8B42F6D144E01F9A52F82330089A22F81730B8F1000F06D0D8F8083096
:405CC00032461B68394640469847049B01379F4230D01AF8013F002BF7D0E6E7D9F800301B7C13F0030309D0022B23D1039BDDF83C80EB180893A2465F4616E0114B029A19
:405D000028461B68984715E0089A22F81730B8F1000F06D0D8F8083032461B68394640469847049B01379F4204D01AF8013F002BF7D0E9E7079B01361D441C9B1C448BE7C3
:405D40003C81FF1F5C81FF1FAF4B1F9A002A08BF1A461E9B1F925B000B931E9B9B000C93631C0393831C0693059B0493069B059A9C1E039B03F1FF3A049B9B1A1A9A9A42C6
:405D800040F340821B9B022B00F0C980042B00F06481012B40F02A829C4B1B68D86DFCF759FA1E9B9A4AC3F10805039B0E9013F8013CDDF83C90D65C1E9B029F1E41934B85
:405DC0001B681B7C03F00303022B1FD0032B59D0012B57D0BD4228BF3D4622462B467F1B1F9806F0010150F82110013B22F8021B4FEA5606F4D104EB4504002F00F08B8097
:405E00001AF8013F824A0825D65CE3E7D8461F9B9B880893BD4228BF3D467F1BB9F1000F24D01EB904EB4504A84423E0F20709D5D9F80830049A1B68414648469847BDF82D
:405E400020302380013D08F1010804F1020411D07608E6E7F30748BFBDF8203004F1020448BF24F8023C013D04D07608002EF1D104EB4504002F4ED01AF8013F644A082534
:405E8000D65CC7E70A9BD8461B699B68984783B20993039B0893BD4228BF3D467F1BB9F1000F1CD0A24608EB05030D93F0070CD5D9F80830049A1B68414648469847BAF8FC
:405EC0000030099A5340AAF800300D9B08F1010898450AF1020A4FEA5606E7D10FE02A462346F10744BF1988099803F1020344BF414023F8021C013A4FEA5606F1D104EB53
:405F0000450447B1089B424A1B780825D65C089B01330893BFE70EA8FCF7AAF966E11E9BC3F10405039BEDB213F8016C0B9B9E40364BF6B21B681B7C03F00303012B09D064
:405F40000AD3022B40F052810F9BDDF8088008935F4636E0029B79E0029B9D42C8BFDDB22A4621465B1B1F9FB00957F82000013AB60012F0FF0221F8020BF6B2F3D1013D38
:405F8000EDB2013504EB4504002B00F02F811AF8016F0425E1E716F0C00F24D10D9B09F10109B6009945F6B2F5D16B1C013704EB43042F44B8F1000F00F018811AF8016FF3
:405FC00004254545C8BF5FFA88F5C5EB0808013DEDB27B1C2B440D936FF0010303FB0743B9460993D7E71F9AB30952F82330099A22F81930089B002BD0D09B68049A1B68A0
:40600000494608989847C9E7E87A00003C81FF1F287B000016F0C00F18BF088802F1FF321CBF80F0FF000880B60012F0FF0201F10201F6B2EED1013DEDB2013504EB450430
:40604000002B00F0D3801AF8016F04259D42C8BFDDB25B1B2A462146DCE7039B0C9A13F8013C93406B4ADDB21268127C02F00302012A00F0958002D3022A35D0B6E01E9BDB
:406080005BB11F9B2D0953F82530039A2380029B069C013B1578924600E0029B012B1ADD5910221D03F001030AEB01001F9F2E0905F00F0557F8266057F8255022F8046CCE
:4060C00022F8025C1AF8015F3E46824502F10402ECD104EB8104002B00F088801F9B2D0953F82530238081E01E9A0F9EC2B113F0F00F0BD01F9B2D0953F8253023802EB1C3
:40610000B368049A1B68594630469847029B069C03F1FF38039B0BF101071D789A460FE0DDF808805F460BE015F0F00F0CD115F00F0517D11AF8015F04340237A8F102086A
:40614000B8F1010FF0DC1AE01F9A2B0952F823302380002EEBD0B368049A1B68394630469847E4E71F9B53F825306380002EE1D0B368049A1B68791C30469847DAE7B8F103
:40618000000F33D02D0931D01F9B53F82530238066B3B368049A1B6839463046984725E01E9B029AC3F10203DBB29342C8BFD3B219462046D21A15F0C00F18BF068801F113
:4061C000FF311CBF86F0FF0606802D0111F0FF0100F10200EDB2EED1013BDBB2013304EB43041AB11AF8015F0223DEE7049B1C9A01330493039B13440393079A069B134475
:406200000693B3E50F9B13B10FA8FCF731F811B0BDE8F08F3C81FF1F082904D0006820B1C3689B6A1847102070474FF0FF30704737B50546FCF70EF8848902AB013C24B256
:4062400043F8040D84811846FCF712F814B92846FCF72EF803B030BD2DE9F843054688469946089C1444AB68561C5F6841464B462846B847B4423246F5D1BDE8F8832DE9FE
:40628000F84F81460D4616461F4614468846DDF828B0DDF82CA039F8020BD847D047013C48F8040BF7D11F2F06D83A4631462846BDE8F84F00F0E2BBBDE8F88F2DE9F84FEB
:4062C00080460D4616461F4689460446DDF828B0DDF82CA014F8010BD847D047331B18EB030F49F8040BF5D11F2F06D83A4631462846BDE8F84F00F0C1BBBDE8F88F000081
:406300002DE9F04F9BB0089109920546002800F09983FBF79FFF1AAB43F81C0D44691846FBF7A6FF2846FFF744FA08280746A54E02DD002C00F0C9810123002728461993F3
:406340000D931897FBF786FF0268B0F90A3012690E93536832680DF1680949F8140D0469D0F81480D0F80CA0B0F908B0507C0C93FEF770F932680B90507CFEF789F90A904F
:406380004846FBF775FF082C0A9A0D9B04D9102C8CBF0423022305E0012C03D118AB0D940A9301E00D930A970C9B934200F0DF803368587CFEF774F90F904FEA8B00FCF7BE
:4063C000D9F81090002800F03D83284600F00DFC0546B8F1000F00F0B9804046FBF73AFF05EB0A0311930023DDF8249016900993119B099ACAEB03070E9B934240F3A280A0
:4064000016980023179383680DF15C085B69099A414698478345054628D11098FBF71AFF0F9B082C01930C9B0146149000935A460B9B384602D9FFF722FF01E0FFF73EFFA7
:406440000A9B1AAD059355F8183D08980493002303930B9B5A4602930123019300934946FDF760FE2846FBF703FF62E0012C02D04FF0010857E0002D5BD01798089E00F0C0
:40648000070306930A9B2A460593082390FBF3F33B440493012302930193009349463044CDF80CA0FDF752FD179B16981D44836817955B69099A414698470546DBE7109869
:4064C000FBF7C8FE0F9B01461490019317980C9B0D9E082C00932A460B9B00FB067025D9FFF7CDFE0A9B17980593149B089E0493002303930B9B2A4649460293304401234A
:40650000CDF80480CDF80080FDF70CFE14A8FBF7AFFE179B16981D44836817955B69099A17A998470546002DC9D102E0FFF7C6FED8E7099B09F1010901330993119B5344EE
:40654000119355E716A8FBF793FE0EE00A9B04900593012301930093CDF80CA002940E9B5A4609990898FDF7DDFD109868E2284600F03BFB0746B8F1000F00F09A80404675
:40658000FBF768FE002516900E9BAB4240F38D8016980023179383680DF15C085B692A46414698478345064626D12E46169806F1010983684A465B6941469847834503D111
:4065C0004E46F3E73C81FF1F0A9BC5EB0608099908F10108059301230497019300932944CDF80CA0029443465A460898FDF79AFD0AFB0877354656E0012C099B04D02B44BC
:406600000B934FF001092BE0A04603EB05092EB3DDF85CE008980EF0070306930A9B3246059308239EFBF3F33B447044049349460123CDF80CA0CDF80880CDF80480CDF8AB
:406640000080FDF783FC179B16981E44836817965B692A4617A998470646D8E7574422E0002EFBD00A9BDDF85CE005930D9B089803FB0E733246704404930B990123CDF8F4
:406680000CA00294CDF80490CDF80090FDF74AFD179B16981E44836817965B692A46414698470646DCE701356EE716A8FBF7E0FDC8E10A9B04900593012301930093CDF80A
:4066C0000CA002940E9B5A463AE02846FBF7C2FD83461AA8BBF90A3040F810BDDBF800200B93DBF80C30D2F810800C93BBF90840FBF7BEFD3268D8F80490507CA14A52F817
:406700002020166933680A93FDF7A4FF08280C9B06D910288CBF4FF0040A4FF0020A01E04FF0010AB04510D1002205922246039301230BF11800019300930B9B0490029710
:4067400009990898FDF7EEFC7CE1202F40F0A2800AFB04F0FBF70EFF0D90002800F07281FBF778FD18902846FBF774FD169033694FEACA0200F118054FEA840B0C9273B39A
:40678000DDF824804FF00109BAF1020F05D0BAF1040F02D0BAF1010F06D128463769534622461899B8475D440023189A059303930C9B0492029322460123CDF80490CDF885
:4067C000009041460898FDF7ADFC0B9B099A08F1010713449F4200F02C81B846D4E7099F1E460B9B4FF001093B440993BAF1020FDDF8608016D0BAF1040F24D0BAF1010F93
:4068000030D143462A4652F8040B0E930A9B0B9298470E9B0B9A03F8010BE11A18EB010FF1D11EE043462A46A04652F8040B0E930A9B0B9298470E9BB8F1010823F8020BA3
:406840000B9AF2D10DE02A46234652F8040B0E930A9B0B9298470E9B48F8040B013B0B9AF3D15D44189B059604930C9B03960293CDF804900123CDF800902246394608987E
:40688000FDF750FC099B07F10108434500F0D1804746ABE7102F40F0D58004FB0AF0FBF769FE0D90002800F0CD80FBF7D3FC18902846FBF7CFFC1690336900F1180713B149
:4068C000D8F8143053B94FEACA03099D0C930B9B66002B444FF0000B099383E0B0F908008000FBF747FE0C9018B1FBF7B3FC179001E00C9B1793179B002B00F09A806300D8
:406900000A93DDF824B04FEACA030E93BAF1020FDDF8609006D0BAF1040F05D0BAF1010F11D101E0534600E00223384622461799D8F81450A84753462246494617983569CE
:40694000A8470A9B1F440023059303930E9B189A02930123049201930093224659460898FDF7E0FB0B9B099A0BF101091344994501D0CB46CAE717A8FBF77AFC0C98FBF7B4
:4069800097FC56E020B5FF1FBAF1040F41D0BAF1010F11D143463A4632F8020B0E930B92C8470A9B98470E9B0B9A03F8010BE11A18EB010FF0D13744189BCDF814B004932C
:4069C0000C9BCDF80CB00293012301930093224629460898FDF7A6FB099B05F10108434527D04546BAF1020FDDF86080CCD143463A46A04632F8020B0E930B92C8470A9BB0
:406A000098470E9BB8F1010823F8020B0B9AF1D1D1E73A46234632F8020B0E930B92C8470A9B98470E9B48F8040B013B0B9AF2D1C1E716A8FBF71CFC18A8FBF719FC0D986C
:406A4000FBF736FC1BB0BDE8F08F00BF37B50546084C694623685A7C074B53F82200C3681B6B984720686A4629460830FEF7D0FD03B030BD3C81FF1F20B5FF1F082A10B554
:406A80000EDD102A0ADC034600EB410150F8042B23F8022B8B42F9D1012010BD002010BD022A2AD10446036801294FEA8313DBB220D0426802294FEA021202F0300243EA5F
:406AC000020301D1083016E0826803294FEA820202F00C0243EA020301D10C300BE0C268043902F003021343103004F8013B0029D9D1D1E704300021F7E7042A15D104464B
:406B00000129036818BF42684FEA0313DBB21BBF02F00F021343002102390CBF0430083004F8013B0029EBD1B6E7012A034654D11A6801294FEAC212D2B24BD05C68022903
:406B40004FEA841404F0400442EA040201D1083341E09C6803294FEA441404F0200442EA040201D10C3336E0DC6804294FEA041404F0100442EA040201D110332BE01C69D9
:406B800005294FEAC40404F0080442EA040201D1143320E05C6906294FEA840404F0040442EA040201D1183315E09C6907394FEA440404F0020442EA040217BFDC691C330A
:406BC00004F00104224318BF203300F8012B0029AED161E704330021F7E7014450F8042B03F8012B9942F9D156E713B558B1FBF731FB02AB43F8040D00F118041846FBF7B9
:406C000037FB2046FFE702B010BD00000E4B70B51E460E4C0025E41AA410A54204D056F8253098470135F8E701F012F8084B094C1E46E41AA4100025A54204D056F82530B6
:406C400098470135F8E770BD5C7C00005C7C00005C7C0000647C0000931E222B10B50C4602D90020087010BD0A2A06D1002804DA2D230B704042012100E00021214400F060
:406C800033F8204610BDFFF7E7BF10B5431E0A44914204D011F8014B03F8014FF8E710BD814210B501EB020301D3421E0BE09842FBD28118D21AD34204D013F8014D01F874
:406CC000014DF8E710BD994204D011F8014B02F8014FF8E710BD03460244934202D003F8011BFAE770470000F0B58BB003460F466D461A4C04F1200E2E4620686168083400
:406D000003C674453546F7D1217920683171911E222930604FF0000001D938701CE07D1EB3FBF2F402FB14330AAE334413F8283C411C05F8013F23460CB10846F0E77C54BD
:406D40003A18C11A8B4206DAF95C1478FC5402F801190133F5E738460BB0F0BD287C0000000000000D0A0000005100402000305100402000605100401000C051004010004F
:406D800000000140800C000D0140000300140140000800400140000A004C01400002005001402000800C014010020048800000003031323334353637383941424344454644
:406DC0000000000001000000CC6D000001000000106F0000000000000000000001000000E46D000001000000CC6E000003000000106E0000000000000000000000000000CB
:406E000000000000000000000C6E0000020A000000008103080002000100820240000A000100030240000A0002030000040309042C034300790070007200650073007300EE
:406E40002000530065006D00690063006F006E0064007500630074006F007200100355005300420055004100520054003803430044004300200043006F006D006D00750034
:406E80006E00690063006100740069006F006E00200049006E007400650072006600610063006500260343004400430020004400610074006100200049006E00740065008F
:406EC000720066006100630065000000090243000201018032090400000102020103052400100104240202052406000105240100010705810308000A09040100020A0000FA
:406F0000040705820240000007050302400000001201000202000008B40432F20100010280010000AD250000E9260000012700000727000000000000000000000809010162
:406F40006C6F000007050700AD250000E926000001270000072700000000000000000000080801016C6F0000070507004871000048710000806F000020007E0006060100E0
:406F80009000FF00886F00009D00FFFF9E00FFFF9F00FFFFA000FFFFA100FFFFA200FFFFFFFFFFFFFFFFFFFFFFFFFFFFFFFFFFFFFFFFFFFFFFFFFFFFFFFFFFFFFFFFFFFFBA
:406FC000FFFFFFFFFFFFFFFF7E00FFFF7600FFFF7F00FFFF8000FFFF8100FFFF8200FFFF8300FFFF8400FFFF8500FFFF8600FFFF8700FFFF8800FFFF8900FFFF8A00FFFF8B
:407000008B00FFFF8C00FFFF8D00FFFF8E00FFFF8F00FFFF9000FFFF9100FFFF9200FFFF9300FFFF9400FFFF7D00FFFF9500FFFF9600FFFF9700FFFF9800FFFF9900FFFF65
:407040009A00FFFF7700FFFF700079007000780070007A0070007C0070007B006600FFFF6800FFFF23007D00710079007100780071007A0071007B00720079007200780088
:4070800072007A0072007B006900FFFF75007C00730079007300780073007A0073007C0073007B009B00FFFF6E00FFFF740079007400780074007A0074007B003900780092
:4070C0006A00FFFF6500FFFF4100600041005F004100610041006300410062006700FFFF6B00FFFF43007D004500600045005F0045006100450062006400600064005F00F0
:4071000064006100640062006C00FFFF4E0063004F0060004F005F004F0061004F0063004F0062009C00FFFF6F00FFFF5500600055005F00550061005500620059005F00A4
:407140006D00FFFF590062000000000000000000202020202000200048484800000000005050F850F85050002078A07028F02000C0C81020409818006090A040A8906800D9
:40718000602040000000000010204040402010004020101010204000005020F820500000002020F8202000000000000000602040000000F800000000000000000060600037
:4071C0000008102040800000708898A8C88870002060202020207000708808304080F800708808300888700010305090F8101000F880F00808887000304080F0888870000F
:40720000F808102040404000708888708888700070888878081060000060600060600000000060600060204010204080402010000000F800F800000080402010204080005E
